:020000040800F2
:10000000C00C0020ED010008490200081318000888
:1000100049020008490200084902000800000000E7
:10002000000000000000000000000000490200087D
:1000300049020008000000004902000849020008C7
:100040004902000849020008490200084902000864
:100050004902000849020008490200084902000854
:100060004902000849020008490200084902000844
:100070004902000849020008490200084902000834
:100080004902000849020008490200084902000824
:100090004902000849020008490200084902000814
:1000A0004902000849020008490200084902000804
:1000B000C10200084902000849020008490200087C
:1000C00049020008490200084902000849020008E4
:1000D00049020008490200084902000849020008D4
:1000E00049020008490200084902000849020008C4
:1000F00049020008490200084902000849020008B4
:1001000049020008490200084902000849020008A3
:100110004902000849020008490200084902000893
:100120004902000849020008490200084902000883
:100130004902000849020008490200084902000873
:100140004902000849020008490200084902000863
:100150004902000849020008490200084902000853
:100160004902000849020008490200084902000843
:100170004902000849020008490200084902000833
:10018000490200084902000880B582B000AF7860DB
:10019000144B1B785A1CD1B2124A11707A68D1B232
:1001A000114AD1540F4B1B780F4A0021D1540D4BEB
:1001B0001B7801330F2B05D87B680A2B02D07B6894
:1001C000002B0CD1074B00221A70074B0420194654
:1001D000002201F013FB0346002B00D000BF0837BC
:1001E000BD4680BD540400204404002080B582B088
:1001F00000AF104B7B60104B3B6007E03B681A1D63
:100200003A607A68111D796012681A603A680B4B7F
:100210009A42F3D30A480B494FF000028842B8BF14
:1002200040F8042BFFF6FAAF00F002FC0837BD4699
:1002300080BD00BF202A00080000002044040020E8
:1002400044040020BC04002080B400AFFEE700BFDF
:1002500080B500AF0120012100F0C2FC154B102237
:100260001A80144B144A5A60124B00221A81114B07
:1002700000225A804FF080400E4901F027FC4FF0D9
:1002800080400121012201F0ABFC4FF080400121B0
:1002900001F086FC094B1C221A70084B01225A708F
:1002A000064B01229A70054B0122DA70034801F0D7
:1002B000AFFB80BDB00400203F420F00AC04002023
:1002C000B0B500AF4FF08040012101F0ADFC034616
:1002D000002B00F072834FF08040012101F0CEFC32
:1002E000A3484FF4005101F031FAA24B1B6803F50B
:1002F0007A72A04B1A60D0203B2101F01FF8034610
:10030000DAB29D4B1A70D0203C2101F017F8034659
:100310001A469A4B1A70984B1B785BB21A02974B8D
:100320001B781344964A82FB03121A449212DB177D
:10033000D31A9AB2934B1A80D0203D2100F0FEFFD1
:100340000346DAB2904B1A70D0203E2100F0F6FF3F
:1003500003461A468D4B1A708B4B1B785BB21A0200
:100360008A4B1B781344864A82FB03121A4492126A
:10037000DB17D31A9AB2864B1A80D0203F2100F0A7
:10038000DDFF0346DAB2834B1A70D020402100F023
:10039000D5FF03461A46804B1A707E4B1B785BB222
:1003A0001A027D4B1B781344754A82FB03121A44D0
:1003B0009212DB17D31A9AB2784B1A80D0204321BD
:1003C00000F0BCFF0346DAB2754B1A70D02044210E
:1003D00000F0B4FF03461A46724B1A70704B1B783C
:1003E0005BB29BB21B029AB26E4B1B7813449BB25A
:1003F0009AB26D4B1A80D020452100F09FFF034632
:10040000DAB26A4B1A70D020462100F097FF0346FB
:100410001A46674B1A70654B1B785BB29BB21B0286
:100420009AB2634B1B7813449BB29AB2614B1A8009
:10043000D020472100F082FF0346DAB25E4B1A70EB
:10044000D020482100F07AFF03461A465B4B1A7011
:10045000594B1B785BB29BB21B029AB2574B1B786D
:1004600013449BB29AB2564B1A80494B1B881AB25E
:100470004A4B1B881BB292FBF3F3184601F00EFFA8
:1004800002460B461046194601F00AFC02460B468E
:10049000104619464FF000024A4B01F065FF024634
:1004A0000B461046194630A3D3E9002302F086F824
:1004B00002460B461046194602F0F0F90246424B3E
:1004C0001A60304B1B881AB2344B1B881BB292FB4C
:1004D000F3F3184601F0E2FE02460B4610461946B9
:1004E00001F0DEFB02460B46104619464FF00002B3
:1004F000344B01F039FF02460B46104619461AA349
:10050000D3E9002302F05AF802460B46104619467A
:1005100002F0C4F902462D4B1A601A4B1B881AB21E
:100520001B4B1B881BB292FBF3F3184601F0B6FE7F
:1005300002460B461046194601F0B2FB02460B4636
:10054000104619464FF000021E4B01F00DFF024607
:100550000B461046194604A3D3E9002302F02EF8F7
:1005600002460B4634E000BFF1D4C853FB210940DA
:10057000000C0240580400205C0400205D040020B0
:10058000A1000AA05E040020600400206104002095
:10059000620400206404002065040020660400203A
:1005A00068040020690400206A0400206C04002014
:1005B0006D0400206E0400207004002071040020EF
:1005C000720400200080664074040020780400203B
:1005D0001046194602F062F90246A14B1A60A14B7F
:1005E0001B881BB2184601F059FE02460B46104606
:1005F00019464FF000029C4B01F0E0FF02460B460B
:100600001046194602F04AF90246984B1A60984B78
:100610001B881BB2184601F041FE02460B461046ED
:1006200019464FF00002904B01F0C8FF02460B46FE
:100630001046194602F032F902468E4B1A608E4B74
:100640001B881BB2184601F029FE02460B461046D5
:1006500019464FF00002844B01F0B0FF02460B46F2
:100660001046194602F01AF90246844B1A60844B70
:100670001A68844B1B68D31A7C4A126802FB03F386
:10068000814A82FB03129211DB17D21A7F4B1A6048
:100690007B4B1A687B4B1B68D31A764A126802FBA5
:1006A00003F3794A82FB03129211DB17D21A784BBB
:1006B0001A60734B1A68734B1B68D31A6F4A12681F
:1006C00002FB03F3704A82FB03129211DB17D21A6A
:1006D000704B1A606D4B1B686F4A83FB02015A18FE
:1006E0001112DA178A1A4FF4B47101FB02F29A1A46
:1006F000664B1A60664B1B68674A83FB02015A18F7
:100700001112DA178A1A4FF4B47101FB02F29A1A25
:100710005F4B1A605F4B1B685F4A83FB02015A18EC
:100720001112DA178A1A4FF4B47101FB02F29A1A05
:10073000584B1A60594B1A68544B1B68134418469F
:1007400001F0ACFD02460B461046194640A3D3E922
:10075000002301F009FE02460B4614461D46504B8D
:100760001B68184601F09AFD02460B4610461946D2
:1007700039A3D3E9002301F0F7FD02460B462046DA
:10078000294601F03FFC02460B461046194602F08E
:1007900085F80246414B1A60424B1A683C4B1B6875
:1007A0001344184601F07AFD02460B4610461946DE
:1007B00027A3D3E9002301F0D7FD02460B461446D8
:1007C0001D46394B1B68184601F068FD02460B4672
:1007D0001046194620A3D3E9002301F0C5FD0246C7
:1007E0000B462046294601F00DFC02460B461046FA
:1007F000194602F053F802462A4B1A602B4B1A682E
:10080000244B1B681344184601F048FD02460B4672
:10081000104619460EA3D3E9002301F0A5FD0246B8
:100820000B4614461D460E4B1B68184601F036FD5C
:1008300002460B461046194607A3D3E9002301F0F0
:1008400093FD02460B462046294601F0DBFB2FE0D4
:100850008FC2F5285C8FEE3F10D7A3703D0AA73FEB
:100860007C0400206A0400200080304080040020C6
:100870006E040020840400207204002088040020FC
:1008800058040020A4040020D34D62108C040020E2
:100890009004002094040020B7600BB69804002058
:1008A000740400209C04002078040020A004002090
:1008B00002460B461046194601F0F0FF02463F4B38
:1008C0001A603F4B1B683F4A83FB02015A18111202
:1008D000DA178A1A4FF4B47101FB02F29A1A384BF4
:1008E0001A60394B1B68374A83FB02015A181112F0
:1008F000DA178A1A4FF4B47101FB02F29A1A324BDA
:100900001A602E4B1B682F4A83FB02015A181112E2
:10091000DA178A1A4FF4B47101FB02F29A1A274BC4
:100920001A602A4B1B8819B2294B1B881AB2294B13
:100930001B881BB2284800F067FC284B1B8819B2A3
:10094000274B1B881AB2274B1B881BB2264800F086
:100950005BFC264B1968264B1A68264B1B682648F9
:1009600000F052FC254B1968254B1A68254B1B6873
:10097000254800F049FC254B1968254B1A68254B82
:100980001B68254800F040FC0D4B19680E4B1A6897
:100990000A4B1B68214800F037FC214B1B6821489B
:1009A000194600F031FC204B1B682048194600F026
:1009B0002BFC1B4B1A681C4B1A60B0BDA004002016
:1009C00098040020B7600BB69C0400205E04002051
:1009D0006204002066040020EC2800086A0400205D
:1009E0006E0400207204002008290008740400200E
:1009F000780400207C0400202429000880040020C2
:100A00008404002088040020402900088C04002071
:100A10009004002094040020602900088029000828
:100A200058040020A4290008A4040020B0290008CC
:100A300080B500AF054800F03FFCD0206B210022BC
:100A400000F09EFCFFF704FCFEE700BFA08601005B
:100A500080B489B000AF78600023BB6100237B6164
:100A60000023FB6102233B610023FB600223BB6088
:100A7000484B9B6803F00C03BB61BB69042B07D098
:100A8000082B09D0002B3FD17B68434A1A603FE016
:100A90007B68424A1A603BE03E4B5B6803F480038C
:100AA0009B0DFB603B4B5B6803F03F03BB60FB6847
:100AB000002B0DD0394ABB68B2FBF3F2354B5968B5
:100AC00047F6C0730B409B0903FB02F3FB610CE08C
:100AD000314ABB68B2FBF3F22E4B596847F6C0733C
:100AE0000B409B0903FB02F3FB612A4B5B6803F499
:100AF00040331B0C01335B003B61FA693B69B2FB7D
:100B0000F3F27B681A6003E07B68234A1A6000BF37
:100B1000204B9B6803F0F003BB61BB691B09BB6101
:100B20001F4ABB6913441B78DBB27B617B681A6880
:100B30007B69DA407B685A60164B9B6803F4E0538C
:100B4000BB61BB699B0ABB61154ABB6913441B7837
:100B5000DBB27B617B685A687B69DA407B689A60AC
:100B60000C4B9B6803F46043BB61BB695B0BBB61CF
:100B70000B4ABB6913441B78DBB27B617B685A6804
:100B80007B69DA407B68DA602437BD465DF8047B18
:100B9000704700BF003802400024F40040787D0117
:100BA0000000002080B483B000AF78600B46FB707B
:100BB000FB78002B06D0094B084A116B7A680A4370
:100BC0001A6306E0054B054A116B7A68D2430A4066
:100BD0001A630C37BD465DF8047B7047003802404D
:100BE00080B483B000AF78600B46FB70FB78002BBD
:100BF00006D0094B084A116C7A680A431A6406E069
:100C0000054B054A116C7A68D2430A401A640C37C6
:100C1000BD465DF8047B70470038024080B582B065
:100C200000AF0346FB71FB791846FFF7ADFA0837B2
:100C3000BD4680BD80B483B000AF78600B46FB70CA
:100C40007B68FA781A70012318460C37BD465DF8A8
:100C5000047B704780B485B000AF786039600023B2
:100C6000FB600AE07B685A1C7A603A68511C396064
:100C700012781A70FB680133FB603B681B78002B0D
:100C8000F0D1FB6818461437BD465DF8047B704709
:100C900080B586B000AFF8607A603B600B46FB72AF
:100CA00000237B617B68013B7B603B68092B10D98B
:100CB0003A681E4BA3FB0213DB08FA7AF868114668
:100CC0007A68FFF7E5FF78617B69FA681344FB6097
:100CD00011E00DE0FB7AF8681946FFF7ABFFFB68FF
:100CE0000133FB607B6901337B617B68013B7B6087
:100CF0007B68002BEEDC39680C4BA3FB0123DA0880
:100D000013469B0013445B00CA1AD3B23033DBB2E4
:100D1000F8681946FFF78EFF03467A6913447B6132
:100D20007B6918461837BD4680BD00BFCDCCCCCC02
:100D300080B586B000AFF8607A603B600B46FB720E
:100D400000237B613B68002B03DA3B685B423B611D
:100D500001E03B683B617B68013B7B603B69092BA1
:100D600021D93B68002B0DDA3A692F4BA3FB021304
:100D7000DB085B42FA7AF86811467A68FFF7D8FF19
:100D800078610BE03A69284BA3FB0213DB08FA7A7F
:100D9000F86811467A68FFF7CBFF78617B69FA68DB
:100DA0001344FB6026E03B68002B03DA7B68013BC1
:100DB0007B600EE00DE0FB7AF8681946FFF73AFF1A
:100DC000FB680133FB607B6901337B617B68013B1E
:100DD0007B607B68002BEEDC3B68002B0ADAF8684E
:100DE0002D21FFF727FF03467A6913447B61FB68D7
:100DF0000133FB6039690C4BA3FB0123DA0813466E
:100E00009B0013445B00CA1AD3B23033DBB2F868DC
:100E10001946FFF70FFF03467A6913447B617B692C
:100E200018461837BD4680BDCDCCCCCC80B588B037
:100E300002AFF8607A600A46FA72BB7200237B61E7
:100E40007B68013B7B603B6A1B09002B12D03B6A2D
:100E50001909FA7ABB7A0091F86811467A68FFF7A7
:100E6000E5FF03467A6913447B617B69FA681344A2
:100E7000FB6011E00DE0FB7AF8681946FFF7DAFE37
:100E8000FB680133FB607B6901337B617B68013B5D
:100E90007B607B68002BEEDC3B6A03F00F03092BC1
:100EA0000BD83B6ADBB203F00F03DBB23033DBB2AB
:100EB000F8681946FFF7BEFE19E0BB7A002B0BD08D
:100EC0003B6ADBB203F00F03DBB23733DBB2F86807
:100ED0001946FFF7AFFE0AE03B6ADBB203F00F03EF
:100EE000DBB25733DBB2F8681946FFF7A3FE7B6924
:100EF00001337B617B6918461837BD4680BD00BF52
:100F000080B58AB002AFF860B9607A603B600023B8
:100F1000BB6100237B61FB68002B03D0FB680022D0
:100F20001A70F8E0F7E07B681B78252B0BD0FB6884
:100F30005A1CFA607A68511C796012781A707B69C1
:100F400001337B61E7E07B6801331B78252B0BD1F4
:100F5000FB685A1CFA6025221A707B6802337B609A
:100F60007B6901337B61D6E02023FB770023BB77CD
:100F70007B6801337B607B681B78302B05D1302385
:100F8000FB777B6801337B600FE00EE0BB7F1A4686
:100F9000920013445B00DAB27B681B781344DBB227
:100FA000303BBB777B6801337B607B681B782F2BE2
:100FB00003D97B681B78392BE8D9BA7F7B69134446
:100FC0001A46BB689A4205D9BB68DAB27B69DBB2C4
:100FD000D31ABB777B681B78583B202B00F28D809F
:100FE00001A252F823F000BFB5100008FB10000862
:100FF000FB100008FB100008FB100008FB100008A5
:10100000FB100008FB100008FB100008FB10000894
:10101000FB100008E51000086D100008FB10000828
:10102000FB100008FB100008FB1000086D10000802
:10103000FB100008FB100008FB100008FB10000864
:10104000FB100008FB100008FB100008FB10000854
:10105000FB100008D1100008FB10000883100008E6
:10106000FB100008FB10000899100008BA7F3B68CD
:10107000191D39601B68F97FF868FFF759FEB861E0
:101080003EE0BA7F3B68191D39601B68F97FF8683C
:10109000FFF7FEFDB86133E0BA7F3B68191D396088
:1010A0001968FB7F0091F86819460023FFF7BEFE20
:1010B000B86125E0BA7F3B68191D39601968FB7F6C
:1010C0000091F86819460123FFF7B0FEB86117E0F8
:1010D0003B681A1D3A601B68F8681946FFF7BAFDAD
:1010E000B8610DE03B681A1D3A601B68DBB2F86816
:1010F0001946FFF79FFDB86102E04FF0FF3325E08E
:101100007B6801337B60BB69FA681344FB607A69D2
:10111000BB6913447B617B681B78002B04D07A6920
:10112000BB689A42FFF4FFAE7A69BB689A4203D269
:10113000FB6800221A7008E0FB68013BFB60FB685B
:1011400000221A707B69013B7B617B69184620375E
:10115000BD4680BD80B584B000AFF860B9607A60EC
:10116000F8686421BA687B68FFF7CAFE0346184630
:101170001037BD4680BD00BFB0B5A6B000AFF86067
:10118000B9607A60144B07F110041D460FCD0FC4EF
:101190000FCD0FC42B68236007F134031846B968DC
:1011A0007A68FFF7D7FF0346632B09DD0B4B1B68FB
:1011B000DB6807F110021046194600F059F8FEE707
:1011C00007F134031846F96800F052F80346184650
:1011D0009837BD46B0BD00BFB829000838040020CC
:1011E00080B582B000AF78603960064B1B689B68A1
:1011F000184679683A68FFF7BFFF03461846083774
:10120000BD4680BD380400200FB480B582B000AF69
:1012100007F114033B6038693968FFF7E1FF786034
:101220007B6818460837BD46BDE8804004B070476B
:1012300080B582B000AF786039600C4B1B689A684B
:101240003B689A4205D0094B1B68DA683B689A42B2
:1012500006D17B68DBB21846FFF7E0FC7B6801E053
:101260004FF0FF3318460837BD4680BD38040020D4
:1012700080B584B000AF786039600023FB6012E075
:101280007B681B7818463968FFF7D2FF0346B3F135
:10129000FF3F02D14FF0FF330AE0FB680133FB60F0
:1012A0007B6801337B607B681B78002BE8D1FB688F
:1012B00018461037BD4680BD80B586B000AF786057
:1012C0001B4B1B4A126C42F400121A6400F08AF99C
:1012D000184B1B687A689A4202D2164B7A681A60D9
:1012E000144B1B68BB604FF48043BB820023BB815F
:1012F00000233B8200237B824BF6FF73FB810E4B66
:101300000D4A128892B222F0010292B21A8007F1BD
:1013100008030948194600F089FA074B064A128863
:1013200092B242F0010292B21A801837BD4680BDD7
:1013300000380240400400200054004080B584B0D2
:1013400000AF02460B46FA71BB71FB7918460021CB
:10135000002200F031F8BB79184600F0AFF800F039
:101360000FF9FB7918460121002200F025F800F062
:10137000CDF80346FB73FB7B18461037BD4680BD96
:1013800080B582B000AF13460246FA710A46BA71C0
:101390007B71FB7918460021002200F00DF8BB7923
:1013A000184600F08BF87B79184600F087F800F0BB
:1013B000E7F80837BD4680BD80B582B000AF134660
:1013C0000246FA710A46BA717B71394B384A128863
:1013D00092B242F4807292B21A80364B44F6206286
:1013E0001A600AE0334B1B685A1E324B1A60314BAD
:1013F0001B68002B01D1012355E02D4B9B8A9BB22A
:1014000003F00103002BEDD07B79002B07D0284B94
:10141000274A128892B242F4806292B21A80BB7953
:10142000002B1DD1224BFA7992B222F0010292B226
:101430001A82204B44F620621A600AE01D4B1B689A
:101440005A1E1C4B1A601B4B1B68002B01D1012339
:1014500029E0174B9B8A9BB203F00203002BEDD0CF
:10146000BB79012B1CD1124BFA7942F00102D2B2A6
:101470001A82104B44F620621A600AE00D4B1B687A
:101480005A1E0C4B1A600B4B1B68002B01D1012319
:1014900009E00748084900F08BFA0346002BEDD01D
:1014A000034B1B8B00231BB218460837BD4680BD7B
:1014B00000540040A80400200200030080B483B060
:1014C00000AF0346FB710F4B44F620621A6004E044
:1014D0000C4B1B685A1E0B4B1A600B4B9B8A9BB222
:1014E00003F08003002B03D1064B1B68002BEFD1C8
:1014F000054BFA7992B21A820C37BD465DF8047B2F
:10150000704700BFA80400200054004080B582B09E
:1015100000AF184B174A128892B222F4806292B23E
:101520001A80144B134A128892B242F4007292B29B
:101530001A80114B44F620621A600AE00E4B1B68B9
:101540005A1E0D4B1A600C4B1B68002B01D1012356
:101550000BE00848094900F02BFA0346002BEDD0B8
:10156000044B1B8A9BB2FB71FB7918460837BD46BA
:1015700080BD00BF00540040A804002040000300CC
:1015800080B400AF154B44F620621A600AE0134B9A
:101590001B685A1E114B1A60104B1B68002B01D19F
:1015A000012316E00E4B9B8A9BB203F08003002BB5
:1015B000EDD00B4B9B8A9BB203F00403002BE6D0CB
:1015C000074B074A128892B242F4007292B21A8014
:1015D00000231846BD465DF8047B7047A804002030
:1015E0000054004080B582B000AF02200121FFF717
:1015F000D9FAC0233B6002233B7102237B71012394
:10160000BB710123FB713B460848194600F010F8F6
:1016100006480621042200F0ABF804480721042202
:1016200000F0A6F80837BD4680BD00BF00040240A8
:1016300080B487B000AF7860396000237B610023FD
:101640003B610023FB6000237B6176E07B69012224
:1016500002FA03F33B613B681A683B691340FB6085
:10166000FA683B699A4265D17B681A687B695B00BE
:10167000032101FA03F3DB431A407B681A607B689D
:101680001A683B681B7919467B695B0001FA03F312
:101690001A437B681A603B681B79012B03D03B68B7
:1016A0001B79022B2ED17B689A687B695B00032132
:1016B00001FA03F3DB431A407B689A607B689A68FF
:1016C0003B685B7919467B695B0001FA03F31A43B7
:1016D0007B689A607B685A687B699BB2012101FA3A
:1016E00003F3DB431A407B685A607B685A683B68A7
:1016F0009B7919467B699BB201FA03F39BB21A43AB
:101700007B685A607B68DA687B699BB25B00032167
:1017100001FA03F3DB431A407B68DA607B68DA681E
:101720003B68DB7919467B695B0001FA03F31A43D6
:101730007B68DA607B6901337B617B690F2B85D91C
:101740001C37BD465DF8047B704700BF80B483B092
:1017500000AF78600B467B807B685A697B885A4073
:101760007B685A610C37BD465DF8047B704700BF4B
:1017700080B485B000AF786013460A467A807B70EB
:101780000023FB600023BB607A787B8803F00703AB
:101790009B0002FA03F3FB607B88DB089BB21A46CE
:1017A0007B88DB089BB219467B68083153F821100F
:1017B0007B8803F007039B000F2000FA03F3DB4351
:1017C00019407B68083243F822107B88DB089BB203
:1017D0001A467B68083253F82220FB681343BB602B
:1017E0007B88DB089BB21A467B680832B96843F8ED
:1017F00022101437BD465DF8047B7047ABBE00F085
:1018000002B800207047002A00F00180106001201B
:10181000704706980188044A914240F003800430E2
:1018200006907047FEE70000ABBE000080B58AB0AE
:1018300000AF786039600023FB8400237B8404239D
:10184000BB84574BFB617B689B88FB84FB8C23F03C
:101850003F03FB8407F10C031846FFF7F9F87B6997
:10186000FB61FA694F4BA3FB02139B0C7B84FA8C40
:101870007B8C1343FB847B68FA8C9A807B681B8883
:101880009BB223F001039AB27B681A800023FB8489
:101890003B681A68444B9A4215D83B681B685B004A
:1018A000FA69B2FBF3F3BB84BB8C032B01D804238E
:1018B000BB84FA8CBB8C1343FB847B8C01339AB2C0
:1018C0007B681A8440E03B68DA884BF6FF739A42E3
:1018D00009D13B681A6813465B001344FA69B2FBEE
:1018E000F3F3BB840EE03B681A6813469B00134475
:1018F0009A001344FA69B2FBF3F3BB84BB8C43F444
:101900008043BB84BB8CC3F30B03002B03D1BB8C84
:1019100043F00103BB84BA8CFB8C13439BB26FEA88
:1019200043436FEA5343FB847B8C4FF4967202FB74
:1019300003F31E4A82FB03129211DB17D31A9BB2E8
:1019400001339AB27B681A847B68FA8C9A837B682D
:101950001B889BB243F001039AB27B681A807B68B4
:101960001B88FB84FB8C23F4816323F00203FB843C
:101970003B689A883B685B8913439AB2FB8C13439C
:10198000FB847B68FA8C1A803B689A893B681B89C8
:1019900013439AB27B681A812837BD4680BD00BFC9
:1019A00000127A0083DE1B43A0860100D34D621033
:1019B00080B487B000AF7860396000233B610023BA
:1019C000FB600023BB600023FB757B689B8A9BB296
:1019D000FB607B681B8B9BB2BB60BB681B04BB605E
:1019E000FA68BB68134323F07F433B613A693B6865
:1019F0001A403B689A4202D10123FB7501E00023A3
:101A0000FB75FB7D18461C37BD465DF8047B7047AF
:101A100080B485B000AF78600023FB730023BB73F4
:101A20000F237B737B68DB78002B37D0254BDB687B
:101A3000DB4303F4E0631B0AFB73FB7BC3F104038A
:101A4000BB737A7BFB7B42FA03F37B737B685B7827
:101A50001A46BB7B02FA03F3FB737B689A787B7BA5
:101A60001340DAB2FB7B1343FB73FB7B1B01FB735D
:101A7000154A7B681B781344FA7B83F80023124BCA
:101A80007A6812785209D2B27968097801F01F0198
:101A9000012000FA01F143F822100EE00A4B7A68A7
:101AA00012785209D2B27968097801F01F01012039
:101AB00000FA01F1203243F822101437BD465DF8D8
:101AC000047B704700ED00E000E100E080B485B0E9
:101AD00000AF786039600023FB817B681B88FB8145
:101AE0007A68284B9A4213D07A68274B9A420FD0D3
:101AF0007B68B3F1804F0BD07A68244B9A4207D0B1
:101B00007A68234B9A4203D07A68224B9A4208D1D2
:101B1000FB8923F07003FB813B685A88FB891343E0
:101B2000FB817A681C4B9A420CD07A681B4B9A4214
:101B300008D0FB8923F44073FB813B681A89FB8939
:101B40001343FB817B68FA891A803B685A687B687B
:101B5000DA623B681A887B681A857A68094B9A4270
:101B600003D07A68084B9A4204D13B689B7A1A46A4
:101B70007B681A867B6801229A821437BD465DF81D
:101B8000047B704700000140000401400004004055
:101B900000080040000C004000100040001400400D
:101BA00080B483B000AF78600B46FB70FB78002BED
:101BB00008D07B681B889BB243F001039AB27B6814
:101BC0001A8007E07B681B889BB223F001039AB25E
:101BD0007B681A800C37BD465DF8047B704700BFF8
:101BE00080B483B000AF786013460A467A807B7079
:101BF0007B78002B08D07B689B899AB27B88134343
:101C00009AB27B689A8109E07B689B899AB27B884B
:101C1000DB439BB213409AB27B689A810C37BD4676
:101C20005DF8047B704700BF80B485B000AF78607A
:101C30000B467B800023FB730023BB8100237B8149
:101C40007B681B8A9AB27B881340BB817B689B8927
:101C50009AB27B8813407B81BB89002B05D07B899E
:101C6000002B02D00123FB7301E00023FB73FB7BFD
:101C700018461437BD465DF8047B704780B483B0C6
:101C800000AF78600B467B807B88DB439AB27B6831
:101C90001A820C37BD465DF8047B704700000000D7
:101CA0002DE9F04FB64B21F000469E4283B004462A
:101CB0000D4689460FDDB3498E4200F3B38000F034
:101CC000AE80B9F1000F40F3EF8091A1D1E900019E
:101CD00003B0BDE8F08FAC4B9E4200F3BD80A3F192
:101CE000DE739E4240F3A7804FF0FF3C22462B4616
:101CF00020462946CDF804C000F036FB02460B46CC
:101D000082468B4600F030FB83A3D3E900230646CE
:101D10000F4600F029FB82A3D3E9002300F072F9FB
:101D200032463B4600F020FB7FA3D3E9002300F0BE
:101D300069F932463B4600F017FB7DA3D3E9002347
:101D400000F060F932463B4600F00EFB7AA3D3E97F
:101D5000002300F057F932463B4600F005FB78A31C
:101D6000D3E9002300F04EF952465B4600F0FCFA3E
:101D700075A3D3E9002382468B463046394600F0EE
:101D8000F3FA73A3D3E9002300F03AF932463B4655
:101D900000F0EAFA70A3D3E9002300F031F93246EB
:101DA0003B4600F0E1FA6EA3D3E9002300F028F9E6
:101DB00032463B4600F0D8FA6BA3D3E9002300F08B
:101DC0001FF932463B4600F0CFFADDF804C0BCF103
:101DD000FF3F02460B466BD0504659464FEACC06B1
:101DE00000F010F922462B4600F0BEFA674F684B10
:101DF00037441E44D6E9002300F002F922462B4660
:101E000000F0FEF802460B46D7E9000100F0F8F8B2
:101E1000B9F1000F0CDA01F10045294608E000286D
:101E20003FF44FAF2046294622462B4600F0EAF801
:101E300003B0BDE8F08F4EA3D3E9002300F0E2F831
:101E40000022544B00F020FD00283FF44DAF204607
:101E5000294603B0BDE8F08F00F0CAF84E4B9E4211
:101E600004460D4633DCA3F550239E4200F3A580C3
:101E700002460B4600F0C6F80022464B00F0C0F8C0
:101E8000002206460F46204629464FF0804300F0C8
:101E9000B9F802460B463046394600F08FFB4FF04A
:101EA000000C04460D4621E733A1D1E90001BFE74C
:101EB0005046594600F0A6F822462B4600F054FA48
:101EC00002460B462046294600F09AF8B0E7334B0D
:101ED0009E4267DC0022324B00F092F80022064658
:101EE0000F46204629462E4B00F03EFA0022294B91
:101EF00000F088F802460B463046394600F05EFB9B
:101F00004FF0020C04460D46F0E600BFAFF3008030
:101F1000182D4454FB21F93F11DA22E33AAD903FEA
:101F2000EB0D76244B7BA93F513DD0A0660DB13F10
:101F30006E204CC5CD45B73FFF8300922449C23F78
:101F40000D5555555555D53F2F6C6A2C44B4A2BF3D
:101F50009AFDDE522DDEAD3F6D9A74AFF2B0B33F05
:101F6000711623FEC671BC3FC4EB98999999C93F7D
:101F70009C7500883CE4377E182D4454FB21F9BF42
:101F8000FFFF0F440000F07FFFFFDB3F002A000847
:101F9000E02900080000F03FFFFFF23FFF7F034011
:101FA0000000F83F02460B4600200F4900F006FBF8
:101FB0004FF0030C04460D4698E600220B4B00F050
:101FC0001FF8002206460F4620462946074B00F020
:101FD00019F802460B463046394600F0EFFA4FF04A
:101FE000010C04460D4681E60000F0BF0000F03F02
:101FF00021F00041704700BF81F0004102E000BFC6
:1020000083F0004330B54FEA41044FEA430594EAB8
:10201000050F08BF90EA020F1FBF54EA000C55EAF3
:10202000020C7FEA645C7FEA655C00F0E2804FEAC4
:102030005454D4EB5555B8BF6D420CDD2C4480EAA6
:10204000020281EA030382EA000083EA010180EAD6
:10205000020281EA0303362D88BF30BD11F0004F24
:102060004FEA01314FF4801C4CEA113102D040425A
:1020700061EB410113F0004F4FEA03334CEA133395
:1020800002D0524263EB430394EA050F00F0A780AD
:10209000A4F10104D5F1200E0DDB02FA0EFC22FAA8
:1020A00005F2801841F1000103FA0EF2801843FA9C
:1020B00005F359410EE0A5F120050EF1200E012A8D
:1020C00003FA0EFC28BF4CF0020C43FA05F3C018CB
:1020D00051EBE37101F0004507D54FF0000EDCF144
:1020E000000C7EEB00006EEB0101B1F5801F1BD3ED
:1020F000B1F5001F0CD349085FEA30004FEA3C0CF1
:1021000004F101044FEA445212F5800F80F09A80E6
:10211000BCF1004F08BF5FEA500C50F1000041EBEA
:10212000045141EA050130BD5FEA4C0C404141EBEE
:10213000010111F4801FA4F10104E9D191F0000F15
:1021400004BF01460020B1FA81F308BF2033A3F198
:102150000B03B3F120020CDA0C3208DD02F1140C8F
:10216000C2F10C0201FA0CF021FA02F10CE002F1CA
:102170001402D8BFC2F1200C01FA02F120FA0CFCC3
:10218000DCBF41EA0C019040E41AA2BF01EB04510C
:10219000294330BD6FEA04041F3C1CDA0C340EDC0A
:1021A00004F11404C4F1200220FA04F001FA02F34D
:1021B00040EA030021FA04F345EA030130BDC4F10B
:1021C0000C04C4F1200220FA02F001FA04F340EA00
:1021D0000300294630BD21FA04F0294630BD94F0B1
:1021E000000F83F4801306BF81F480110134013D98
:1021F0004EE77FEA645C18BF7FEA655C29D094EA09
:10220000050F08BF90EA020F05D054EA000C04BF86
:102210001946104630BD91EA030F1EBF0021002071
:1022200030BD5FEA545C05D14000494128BF41F010
:10223000004130BD14F580043CBF01F5801130BD74
:1022400001F0004545F0FE4141F470014FF00000FF
:1022500030BD7FEA645C1ABF194610467FEA655CB0
:102260001CBF0B46024650EA013406BF52EA033552
:1022700091EA030F41F4002130BD00BF90F0000F40
:1022800004BF0021704730B54FF4806404F132047C
:102290004FF000054FF0000150E700BF90F0000F35
:1022A00004BF0021704730B54FF4806404F132045C
:1022B00010F0004548BF40424FF000013EE700BF2C
:1022C00042004FEAE2014FEA31014FEA02701FBFBC
:1022D00012F07F4393F07F4F81F06051704792F08E
:1022E000000F14BF93F07F4F704730B54FF4607408
:1022F00001F0004521F0004120E700BF50EA010253
:1023000008BF704730B54FF000050AE050EA0102FF
:1023100008BF704730B511F0004502D5404261EB6F
:1023200041014FF4806404F132045FEA915C3FF4B0
:10233000DCAE4FF003025FEADC0C18BF03325FEA49
:10234000DC0C18BF033202EBDC02C2F1200300FAFE
:1023500003FC20FA02F001FA03FE40EA0E0021FA23
:1023600002F11444C1E600BF70B54FF0FF0C4CF40D
:10237000E06C1CEA11541DBF1CEA135594EA0C0FC3
:1023800095EA0C0F00F0DEF82C4481EA030621EAFE
:102390004C5123EA4C5350EA013518BF52EA033539
:1023A00041F4801143F4801338D0A0FB02CE4FF0EB
:1023B0000005E1FB02E506F00042E0FB03E54FF01B
:1023C0000006E1FB03569CF0000F18BF4EF0010E13
:1023D000A4F1FF04B6F5007F64F5407404D25FEA0F
:1023E0004E0E6D4146EB060642EAC62141EA5551C2
:1023F0004FEAC52040EA5E504FEACE2EB4F1FD0C04
:1024000088BFBCF5E06F1ED8BEF1004F08BF5FEA81
:10241000500E50F1000041EB045170BD06F0004633
:1024200046EA010140EA020081EA0301B4EB5C04E0
:10243000C2BFD4EB0C0541EA045170BD41F48011D8
:102440004FF0000E013C00F3AB8014F1360FDEBFFD
:10245000002001F0004170BDC4F10004203C35DAD9
:102460000C341BDC04F11404C4F1200500FA05F35C
:1024700020FA04F001FA05F240EA020001F00042FD
:1024800021F0004110EBD37021FA04F642EB060173
:102490005EEA430E08BF20EAD37070BDC4F10C049D
:1024A000C4F1200500FA04F320FA05F001FA04F261
:1024B00040EA020001F0004110EBD37041F100014D
:1024C0005EEA430E08BF20EAD37070BDC4F1200558
:1024D00000FA05F24EEA020E20FA04F301FA05F2C0
:1024E00043EA020321FA04F001F0004121FA04F268
:1024F00020EA020000EBD3705EEA430E08BF20EA38
:10250000D37070BD94F0000F0FD101F00046400071
:1025100041EB010111F4801F08BF013CF7D041EAF3
:10252000060195F0000F18BF704703F000465200F7
:1025300043EB030313F4801F08BF013DF7D043EAC8
:102540000603704794EA0C0F0CEA135518BF95EA7E
:102550000C0F0CD050EA410618BF52EA4306D1D105
:1025600081EA030101F000414FF0000070BD50EA24
:10257000410606BF1046194652EA430619D094EAAE
:102580000C0F02D150EA013613D195EA0C0F05D198
:1025900052EA03361CBF104619460AD181EA0301EC
:1025A00001F0004141F0FE4141F470014FF00000A4
:1025B00070BD41F0FE4141F4780170BD70B54FF03F
:1025C000FF0C4CF4E06C1CEA11541DBF1CEA1355BF
:1025D00094EA0C0F95EA0C0F00F0A7F8A4EB0504A1
:1025E00081EA030E52EA03354FEA013100F0888098
:1025F0004FEA03334FF0805545EA131343EA126361
:102600004FEA022245EA111545EA10654FEA002615
:102610000EF000419D4208BF964244F1FD0404F5CE
:10262000407402D25B084FEA3202B61A65EB03052A
:102630005B084FEA32024FF480104FF4002CB6EBE7
:10264000020E75EB030E22BFB61A754640EA0C0067
:102650005B084FEA3202B6EB020E75EB030E22BFA7
:10266000B61A754640EA5C005B084FEA3202B6EBE8
:10267000020E75EB030E22BFB61A754640EA9C00A7
:102680005B084FEA3202B6EB020E75EB030E22BF77
:10269000B61A754640EADC0055EA060E18D04FEA35
:1026A000051545EA16754FEA06164FEAC30343EAD5
:1026B00052734FEAC2025FEA1C1CC0D111F4801FA2
:1026C0000BD141EA00014FF000004FF0004CB6E79B
:1026D00011F4801F04BF01430020B4F1FD0C88BF3A
:1026E000BCF5E06F3FF6AFAEB5EB030C04BFB6EB45
:1026F000020C5FEA500C50F1000041EB045170BD38
:102700000EF0004E4EEA113114EB5C04C2BFD4EB64
:102710000C0541EA045170BD41F480114FF0000EE8
:10272000013C90E645EA060E8DE60CEA135594EA64
:102730000C0F08BF95EA0C0F3FF43BAF94EA0C0F67
:102740000AD150EA01347FF434AF95EA0C0F7FF4DC
:1027500025AF104619462CE795EA0C0F06D152EA30
:1027600003353FF4FDAE1046194622E750EA410614
:1027700018BF52EA43067FF4C5AE50EA41047FF425
:102780000DAF52EA43057FF4EBAE12E74FF0FF3C8A
:1027900006E000BF4FF0010C02E000BF4FF0010C5B
:1027A0004DF804CD4FEA410C7FEA6C5C4FEA430CD4
:1027B00018BF7FEA6C5C1BD001B050EA410C0CBF23
:1027C00052EA430C91EA030F02BF90EA020F002085
:1027D000704710F1000F91EA030F58BF994208BFEC
:1027E00090422CBFD8176FEAE37040F001007047A9
:1027F0004FEA410C7FEA6C5C02D150EA013C07D100
:102800004FEA430C7FEA6C5CD6D152EA033CD3D04A
:102810005DF8040B704700BF8446104662468C4644
:102820001946634600E000BF01B5FFF7B7FF002877
:1028300048BF10F1000F01BD4DF808EDFFF7F4FFA0
:102840000CBF012000205DF808FB00BF4DF808ED2B
:10285000FFF7EAFF34BF012000205DF808FB00BF4E
:102860004DF808EDFFF7E0FF94BF012000205DF870
:1028700008FB00BF4DF808EDFFF7CEFF94BF012025
:1028800000205DF808FB00BF4DF808EDFFF7C4FF1E
:1028900034BF012000205DF808FB00BF4FEA410271
:1028A00012F5001215D211D56FF47873B3EB6252A2
:1028B00012D94FEAC12343F0004343EA505311F0C9
:1028C000004F23FA02F018BF404270474FF000005B
:1028D000704750EA013005D111F0004008BF6FF099
:1028E000004070474FF00000704700BF4143434530
:1028F0004C2020783D25642C2020793D25642C2017
:10290000207A3D25640A00004759524F2020783D27
:1029100025642C2020793D25642C20207A3D2564D7
:102920000A000000414E474C452020783D25642C8C
:102930002020793D25642C20207A3D25640A000062
:102940004759524F524154452020783D25642C2050
:1029500020793D25642C20207A3D25640A00000062
:102960004759524F414E474C452020783D25642C15
:102970002020793D25642C20207A3D25640A000022
:10298000436F6D707574656420414E474C4520203F
:10299000783D25642C2020793D25642C20207A3D2B
:1029A00025640A00434F554E543A2025640A00001E
:1029B000543A2025640A0A00737464696F2E633ADE
:1029C00020696E637265617365204D41585F535491
:1029D00052494E475F53495A450A0D000000000016
:1029E000E2652F227F2B7A3C075C143326A6813CBC
:1029F000BDCBF07A8807703C075C143326A6913C67
:102A00004FBB610567ACDD3F182D4454FB21E93F06
:102A10009BF681D20B73EF3F182D4454FB21F93FF5
:102A20000000000001020304010203040607080974
:102A30000000000000000000010000000000000095
:102A40000000000000000000000000000000000086
:102A50000000000000000000000000000000000076
:102A60000000000000000000000000000000000066
:102A70000000000000000000000000000000000056
:102E50000000000000000000100000200000000042
:042E6000FFFFFFFF72
:0400000508000000EF
:00000001FF
