:020000040800F2
:100000002808002061030008BD030008BD030008A4
:10001000BD030008BD030008BD0300080000000088
:10002000000000000000000000000000BD03000808
:10003000BD03000800000000BD030008BD03000868
:10004000BD030008BD030008BD030008BD03000890
:10005000BD030008BD030008BD030008BD03000880
:10006000BD030008BD030008BD030008BD03000870
:10007000BD030008BD030008BD030008BD03000860
:10008000BD030008BD030008BD030008BD03000850
:10009000BD030008BD030008BD030008BD03000840
:1000A000BD030008BD030008BD030008BD03000830
:1000B000BD030008BD030008BD030008BD03000820
:1000C000BD030008BD030008BD030008BD03000810
:1000D000BD030008BD030008BD030008BD03000800
:1000E000BD030008BD030008BD030008BD030008F0
:1000F000BD030008BD030008BD030008BD030008E0
:10010000BD030008BD030008BD030008BD030008CF
:10011000BD030008BD030008BD030008BD030008BF
:10012000BD030008BD030008BD030008BD030008AF
:10013000BD030008BD030008BD030008BD0300089F
:10014000BD030008BD030008BD030008BD0300088F
:10015000BD030008BD030008BD030008BD0300087F
:10016000BD030008BD030008BD030008BD0300086F
:10017000BD030008BD030008BD030008BD0300085F
:10018000BD030008BD03000880B58AB000AF7860E9
:10019000396000237B6200233B620023FB61002364
:1001A000BB617B681B8A9BB27B627B6A23F44053F2
:1001B0007B623B68DB887A6A13437B627B6A9AB214
:1001C0007B681A827B689B899BB27B627B6A23F483
:1001D000B05323F00C037B623B689A883B681B8911
:1001E00013439AB23B685B8913439BB27A6A134309
:1001F0007B627B6A9AB27B689A817B689B8A9BB29E
:100200007B627B6A23F440737B623B689B897A6ADA
:1002100013437B627B6A9AB27B689A8207F1080378
:10022000184600F023F97A68314B9A4203D07A6875
:10023000304B9A4202D17B693B6201E03B693B62F1
:100240007B689B899BB29BB21BB2002B0CDA3A6A8B
:1002500013469B0013449A001A443B681B685B00DA
:10026000B2FBF3F3FB610BE03A6A13469B001344C5
:100270009A001A443B681B689B00B2FBF3F3FB61D6
:10028000FA691D4BA3FB02135B091B017B627B6AAE
:100290001B09642202FB03F3FA69D31ABB617B6872
:1002A0009B899BB29BB21BB2002B0DDABB69DB00B2
:1002B00003F13202104BA3FB02135B0903F00703A7
:1002C0007A6A13437B620CE0BB691B0103F13202C3
:1002D000094BA3FB02135B0903F00F037A6A134374
:1002E0007B627B6A9AB27B681A812837BD4680BDE3
:1002F00000100140001401401F85EB5180B483B011
:1003000000AF78600B46FB70FB78002B08D07B6851
:100310009B899BB243F400539AB27B689A8107E0B1
:100320007B689B899BB223F400539AB27B689A81C5
:100330000C37BD465DF8047B704700BF80B483B0C6
:1003400000AF78600B467B807B88C3F308039AB2CA
:100350007B689A800C37BD465DF8047B704700BF10
:1003600080B582B000AF104B7B60104B3B6007E064
:100370003B681A1D3A607A68111D796012681A602C
:100380003A680B4B9A42F3D30A480B494FF00002EC
:100390008842B8BF40F8042BFFF6FAAF00F05AF8D5
:1003A0000837BD4680BD00BFE00700080000002000
:1003B00010000020100000202800002080B400AFB2
:1003C000FEE700BF80B500AF0420012100F0F8F87F
:1003D0004FF48020012100F011F91A480A21072268
:1003E00000F0B8F9184B02221A71174B00229A71CB
:1003F000154B0122DA71144B4FF480621A60124BD4
:1004000002225A710F48104900F016F90F4B4FF4B1
:1004100016521A600D4B00229A800C4B0022DA8093
:100420000A4B00221A81094B00229A81074B0822AD
:100430005A8107480549FFF7A7FE05480121FFF744
:100440005DFF80BD00080240200000201000002059
:100450000048004080B500AFFFF7B4FF02484121DB
:10046000FFF76CFFFAE700BF0048004080B489B096
:1004700000AF78600023BB6100237B610023FB6138
:1004800002233B610023FB600223BB60484B9B6857
:1004900003F00C03BB61BB69042B07D0082B09D008
:1004A000002B3FD17B68434A1A603FE07B68424A99
:1004B0001A603BE03E4B5B6803F480039B0DFB60DE
:1004C0003B4B5B6803F03F03BB60FB68002B0DD028
:1004D000394ABB68B2FBF3F2354B596847F6C07333
:1004E0000B409B0903FB02F3FB610CE0314ABB6844
:1004F000B2FBF3F22E4B596847F6C0730B409B09D1
:1005000003FB02F3FB612A4B5B6803F440331B0CD3
:1005100001335B003B61FA693B69B2FBF3F27B6834
:100520001A6003E07B68234A1A6000BF204B9B6877
:1005300003F0F003BB61BB691B09BB611F4ABB69C8
:1005400013441B78DBB27B617B681A687B69DA40F5
:100550007B685A60164B9B6803F4E053BB61BB6930
:100560009B0ABB61154ABB6913441B78DBB27B61F4
:100570007B685A687B69DA407B689A600C4B9B68A1
:1005800003F46043BB61BB695B0BBB610B4ABB6996
:1005900013441B78DBB27B617B685A687B69DA4065
:1005A0007B68DA602437BD465DF8047B704700BF86
:1005B000003802400024F40040787D010000002053
:1005C00080B483B000AF78600B46FB70FB78002BE3
:1005D00006D0094B084A116B7A680A431A6306E091
:1005E000054B054A116B7A68D2430A401A630C37EF
:1005F000BD465DF8047B70470038024080B483B08C
:1006000000AF78600B46FB70FB78002B06D0094BDF
:10061000084A116C7A680A431A6406E0054B054AD9
:10062000116C7A68D2430A401A640C37BD465DF8F3
:10063000047B70470038024080B487B000AF786018
:10064000396000237B6100233B610023FB600023B2
:100650007B6176E07B69012202FA03F33B613B6830
:100660001A683B691340FB60FA683B699A4265D19E
:100670007B681A687B695B00032101FA03F3DB43A3
:100680001A407B681A607B681A683B681B791946B8
:100690007B695B0001FA03F31A437B681A603B68CD
:1006A0001B79012B03D03B681B79022B2ED17B6871
:1006B0009A687B695B00032101FA03F3DB431A406C
:1006C0007B689A607B689A683B685B7919467B69AE
:1006D0005B0001FA03F31A437B689A607B685A68EF
:1006E0007B699BB2012101FA03F3DB431A407B686B
:1006F0005A607B685A683B689B7919467B699BB254
:1007000001FA03F39BB21A437B685A607B68DA688C
:100710007B699BB25B00032101FA03F3DB431A40C0
:100720007B68DA607B68DA683B68DB7919467B694D
:100730005B0001FA03F31A437B68DA607B690133DB
:100740007B617B690F2B85D91C37BD465DF8047B27
:10075000704700BF80B485B000AF786013460A468A
:100760007A807B700023FB600023BB607A787B88F3
:1007700003F007039B0002FA03F3FB607B88DB08AE
:100780009BB21A467B88DB089BB219467B6808310E
:1007900053F821107B8803F007039B000F2000FA19
:1007A00003F3DB4319407B68083243F822107B884F
:1007B000DB089BB21A467B68083253F82220FB689C
:1007C0001343BB607B88DB089BB21A467B68083208
:1007D000B96843F822101437BD465DF8047B7047B2
:1007E00000000000010203040102030406070809D7
:0400000508000000EF
:00000001FF
