:020000040800F2
:1000000018080020050200086102000861020008CB
:10001000610200086102000861020008000000009F
:100020000000000000000000000000006102000865
:10003000610200080000000061020008610200087F
:100040006102000861020008610200086102000804
:10005000610200086102000825030008610200082F
:1000600061020008610200086102000861020008E4
:1000700061020008610200086102000861020008D4
:1000800061020008610200086102000861020008C4
:1000900061020008610200086102000861020008B4
:1000A00061020008610200086102000861020008A4
:1000B0006102000861020008610200086102000894
:1000C0006102000861020008610200086102000884
:1000D0006102000861020008610200086102000874
:1000E0006102000861020008610200086102000864
:1000F0006102000861020008610200086102000854
:100100006102000861020008610200086102000843
:100110006102000861020008610200086102000833
:100120006102000861020008610200086102000823
:100130006102000861020008610200086102000813
:100140006102000861020008610200086102000803
:1001500061020008610200086102000861020008F3
:1001600061020008610200086102000861020008E3
:1001700061020008610200086102000861020008D3
:10018000610200086102000890B484B000AF02462A
:100190000B46FA71BB710023FB60BB7903F00303CC
:1001A0009B000F2202FA03F3FB60154BBA79920809
:1001B000D2B21349B8798008C0B2023051F8200099
:1001C000F968C9430140023243F822100C4BBA7956
:1001D0009208D2B20A49B8798008C0B2023051F808
:1001E0002000FC79B97901F00301890004FA01F1DA
:1001F0000143023243F822101037BD4690BC7047CD
:100200000038014080B582B000AF104B7B60104BCE
:100210003B6007E03B681A1D3A607A68111D7960FF
:1002200012681A603A680B4B9A42F3D30A480B499A
:100230004FF000028842B8BF40F8042BFFF6FAAF37
:1002400000F084F80837BD4680BD00BF0C070008E9
:10025000000000200000002000000020140000200A
:1002600080B400AFFEE700BF80B500AF08200121D9
:1002700000F072F8264B4FF480521A60244B012292
:100280001A71234B00229A71214B02225A71204B82
:100290000022DA711F481E4900F09AF8012001215E
:1002A00000F05AF84FF48040012100F073F8184B29
:1002B00001221A60164B00221A71154B0022DA71C6
:1002C0001548134900F084F800200021FFF75CFF77
:1002D000124B01221A60114B00221A710F4B082297
:1002E0005A710E4B01229A710C4800F011F90C4B17
:1002F00006221A700A4B00225A70094B01229A708A
:10030000074B0122DA70064800F0A2F980BD00BF59
:100310000C000020000C0240000002400000002001
:100320000800002080B500AF012000F05FF903460F
:10033000002B07D004484FF4805100F0D7F801207B
:1003400000F078F980BD00BF000C024080B500AF1E
:10035000FFF78AFFFEE700BF80B483B000AF78608C
:100360000B46FB70FB78002B06D0094B084A116B3B
:100370007A680A431A6306E0054B054A116B7A68EE
:10038000D2430A401A630C37BD465DF8047B7047C0
:100390000038024080B483B000AF78600B46FB7039
:1003A000FB78002B06D0094B084A516C7A680A4347
:1003B0005A6406E0054B054A516C7A68D2430A40FC
:1003C0005A640C37BD465DF8047B70470038024024
:1003D00080B487B000AF7860396000237B61002370
:1003E0003B610023FB6000237B6176E07B69012297
:1003F00002FA03F33B613B681A683B691340FB60F8
:10040000FA683B699A4265D17B681A687B695B0030
:10041000032101FA03F3DB431A407B681A607B680F
:100420001A683B681B7919467B695B0001FA03F384
:100430001A437B681A603B681B79012B03D03B6829
:100440001B79022B2ED17B689A687B695B000321A4
:1004500001FA03F3DB431A407B689A607B689A6871
:100460003B685B7919467B695B0001FA03F31A4329
:100470007B689A607B685A687B699BB2012101FAAC
:1004800003F3DB431A407B685A607B685A683B6819
:100490009B7919467B699BB201FA03F39BB21A431D
:1004A0007B685A607B68DA687B699BB25B000321DA
:1004B00001FA03F3DB431A407B68DA607B68DA6891
:1004C0003B68DB7919467B695B0001FA03F31A4349
:1004D0007B68DA607B6901337B617B690F2B85D98F
:1004E0001C37BD465DF8047B704700BF80B483B005
:1004F00000AF78600B467B807B685A697B885A40E6
:100500007B685A610C37BD465DF8047B704700BFBD
:1005100080B485B000AF78600023FB60324BFB6095
:100520007B689B79002B4DD02F4B2F4A11687A683E
:100530001268D2430A401A602B4B2B4A51687A68E2
:100540001268D2430A405A607B681B79FA681344E8
:10055000FB60FB68FA6811687A6812680A431A60DF
:10056000214B214A91687A681268D2430A409A6006
:100570001D4B1D4AD1687A681268D2430A40DA607E
:100580007B685B79102B0ED1174B174A91687A68FC
:1005900012680A439A60144B134AD1687A68126849
:1005A0000A43DA601BE0104BFB607B685B79FA68FA
:1005B0001344FB60FB68FA6811687A6812680A43A2
:1005C0001A600CE07B681B79FA681344FB60FB68D7
:1005D000FA6811687A681268D2430A401A601437C0
:1005E000BD465DF8047B7047003C014080B485B097
:1005F00000AF78600023FB730023BB600C4B1A68CC
:100600007B681340BB600A4B5A697B681340002B20
:1006100005D0BB68002B02D00123FB7301E000234F
:10062000FB73FB7B18461437BD465DF8047B7047AF
:10063000003C014080B483B000AF7860034B7A681F
:100640005A610C37BD465DF8047B7047003C0140A1
:1006500080B485B000AF78600023FB730023BB73C8
:100660000F237B737B68DB78002B37D0254BDB684F
:10067000DB4303F4E0631B0AFB73FB7BC3F104035E
:10068000BB737A7BFB7B42FA03F37B737B685B78FB
:100690001A46BB7B02FA03F3FB737B689A787B7B79
:1006A0001340DAB2FB7B1343FB73FB7B1B01FB7331
:1006B000154A7B681B781344FA7B83F80023124B9E
:1006C0007A6812785209D2B27968097801F01F016C
:1006D000012000FA01F143F822100EE00A4B7A687B
:1006E00012785209D2B27968097801F01F0101200D
:1006F00000FA01F1203243F822101437BD465DF8AC
:0C070000047B704700ED00E000E100E029
:0400000508000000EF
:00000001FF
