:1000000019C033C032C031C030C02FC02EC02DC087
:100010002CC02BC02AC029C028C027C026C025C09C
:1000200024C023C022C021C020C01FC01EC01DC0CC
:100030001CC01BC011241FBECFEFD4E0DEBFCDBF5C
:1000400011E0A0E0B1E0ECEBF0E002C005900D9211
:10005000A030B107D9F711E0A0E0B1E001C01D92D6
:10006000A130B107E1F717D027C0CACF1092C50061
:1000700087E68093C400E1ECF0E0808188618083B2
:10008000E2ECF0E080818A60808308959091C00066
:100090008093C6000895EADF81E480930001809197
:1000A0000001F4DF8FEF93EDA0E381509040A0407A
:0C00B000E1F700C00000F3CFF894FFCF90
:00000001FF
