:020000040800F2
:100000003008002089010008E5010008E50100082A
:10001000E5010008E5010008E50100080000000016
:10002000000000000000000000000000E5010008E2
:10003000E501000800000000E5010008E5010008F6
:10004000E5010008E5010008E5010008E5010008F8
:10005000E5010008E5010008E5010008E5010008E8
:10006000E5010008E5010008E5010008E5010008D8
:10007000E5010008E5010008E5010008E5010008C8
:10008000E5010008E5010008E5010008E5010008B8
:10009000E5010008E5010008E5010008E5010008A8
:1000A000E5010008E5010008E5010008E501000898
:1000B000E5010008E5010008E5010008E501000888
:1000C000E5010008E5010008E5010008E501000878
:1000D000E5010008E5010008E5010008E501000868
:1000E000E5010008E5010008E5010008E501000858
:1000F000E5010008E5010008E5010008E501000848
:10010000E5010008E5010008E5010008E501000837
:10011000E5010008E5010008E5010008E501000827
:10012000E5010008E5010008E5010008E501000817
:10013000E5010008E5010008E5010008E501000807
:10014000E5010008E5010008E5010008E5010008F7
:10015000E5010008E5010008E5010008E5010008E7
:10016000E5010008E5010008E5010008E5010008D7
:10017000E5010008E5010008E5010008E5010008C7
:10018000E5010008E501000880B582B000AF104B22
:100190007B60104B3B6007E03B681A1D3A607A6851
:1001A000111D796012681A603A680B4B9A42F3D3BA
:1001B0000A480B494FF000028842B8BF40F8042BB0
:1001C000FFF6FAAF00F0DCF80837BD4680BD00BF8F
:1001D000580C000800000020100000201000002033
:1001E0002C00002080B400AFFEE700BF80B500AF58
:1001F0000220012100F012FA2B4B00229A712A4BA7
:100200000122DA71284B02221A71274BC0221A6090
:10021000254B02225A712548234900F059FA2348F8
:100220000721042200F0F0FA20480621042200F001
:10023000EBFA0220012100F0F1F91B4B01229A7127
:10024000194B0122DA71184B02221A71164B4FF426
:1002500040621A60144B02225A711448124900F08D
:1002600037FA12480A21042200F0CEFA0F480B2177
:10027000042200F0C9FA0820012100F0CFF90A4B4E
:1002800001221A71084B00229A71074B0022DA7181
:10029000054B4FF470421A60034B02225A71044816
:1002A000014900F015FA80BD24000020000402403E
:1002B000000C024080B500AF4FF40010012100F0A7
:1002C000CBF91F48012100F0A7FB1E4B00225A81E9
:1002D0001C4B1D4A1A601B4B4BF6FF72DA80194B00
:1002E00000229A80174B00221A81164B4FF480424D
:1002F0009A811348134900F0CDFA4FF48000012190
:1003000000F0AAF90F4B4FF480625A810D4B0E4A50
:100310001A600C4B4BF6FF72DA800A4B00229A806F
:10032000084B01221A81074B4FF480429A810748FB
:10033000012100F071FB0548024900F0ABFA80BDD5
:100340000054004014000020A08601000058004026
:1003500080B582B000AF78607868012100F09CFB26
:1003600000BF0548054900F043FC0346002BF8D1C7
:100370000837BD4680BD00BF00540040100000108B
:1003800080B582B000AFFFF731FF4FF400100121BC
:1003900000F080F94FF40010002100F07BF9FFF726
:1003A00089FF0023FB714048012100F055FB00BF8D
:1003B0003D483E4900F01CFC0346002BF8D03A486B
:1003C0000221002200F088FB39484FF4805100F0F0
:1003D0000DFA00BF3448374900F0DAFB0346002B22
:1003E000F8D033484FF4005100F000FA2E48202195
:1003F00000F0B0FB00BF2C482F4900F0C9FB0346BA
:10040000002BF8D02A484FF4804100F0EFF926483D
:10041000FFF79EFF2948012100F07CFB00BF224826
:100420004FF4003100F0E4FB0346002BF7D12348E2
:10043000012100F011FB00BF1B481C4900F0D8FB54
:100440000346002BF8D01D480121012200F044FB97
:1004500000BF1A481A4900F09BFB0346002BF8D056
:1004600000BF1648174900F093FB0346002BF8D055
:10047000124800F07FFB0346BB71BB79202B04D1EF
:100480000B484FF4804100F0B1F9BB79FB710B4888
:10049000FFF75EFFFB79012B05D105484FF40041C2
:1004A00000F0A4F97FE77EE700540040010000104F
:1004B000000C024082000700840007000058004042
:1004C000020003004000030080B489B000AF7860F0
:1004D0000023BB6100237B610023FB6102233B619E
:1004E0000023FB600223BB60484B9B6803F00C03B6
:1004F000BB61BB69042B07D0082B09D0002B3FD16F
:100500007B68434A1A603FE07B68424A1A603BE0DE
:100510003E4B5B6803F480039B0DFB603B4B5B68C9
:1005200003F03F03BB60FB68002B0DD0394ABB686A
:10053000B2FBF3F2354B596847F6C0730B409B0989
:1005400003FB02F3FB610CE0314ABB68B2FBF3F240
:100550002E4B596847F6C0730B409B0903FB02F30F
:10056000FB612A4B5B6803F440331B0C01335B00D7
:100570003B61FA693B69B2FBF3F27B681A6003E006
:100580007B68234A1A6000BF204B9B6803F0F0038E
:10059000BB61BB691B09BB611F4ABB6913441B7864
:1005A000DBB27B617B681A687B69DA407B685A60E2
:1005B000164B9B6803F4E053BB61BB699B0ABB61AC
:1005C000154ABB6913441B78DBB27B617B685A68B0
:1005D0007B69DA407B689A600C4B9B6803F460434C
:1005E000BB61BB695B0BBB610B4ABB6913441B78E6
:1005F000DBB27B617B685A687B69DA407B68DA60D2
:100600002437BD465DF8047B704700BF00380240C8
:100610000024F40040787D010000002080B483B005
:1006200000AF78600B46FB70FB78002B06D0094BBF
:10063000084A116B7A680A431A6306E0054B054ABB
:10064000116B7A68D2430A401A630C37BD465DF8D5
:10065000047B70470038024080B483B000AF7860FC
:100660000B46FB70FB78002B06D0094B084A116C37
:100670007A680A431A6406E0054B054A116C7A68E9
:10068000D2430A401A640C37BD465DF8047B7047BC
:100690000038024080B483B000AF78600B46FB7036
:1006A000FB78002B06D0094B084A116A7A680A4386
:1006B0001A6206E0054B054A116A7A68D2430A407D
:1006C0001A620C37BD465DF8047B70470038024063
:1006D00080B487B000AF7860396000237B6100236D
:1006E0003B610023FB6000237B6176E07B69012294
:1006F00002FA03F33B613B681A683B691340FB60F5
:10070000FA683B699A4265D17B681A687B695B002D
:10071000032101FA03F3DB431A407B681A607B680C
:100720001A683B681B7919467B695B0001FA03F381
:100730001A437B681A603B681B79012B03D03B6826
:100740001B79022B2ED17B689A687B695B000321A1
:1007500001FA03F3DB431A407B689A607B689A686E
:100760003B685B7919467B695B0001FA03F31A4326
:100770007B689A607B685A687B699BB2012101FAA9
:1007800003F3DB431A407B685A607B685A683B6816
:100790009B7919467B699BB201FA03F39BB21A431A
:1007A0007B685A607B68DA687B699BB25B000321D7
:1007B00001FA03F3DB431A407B68DA607B68DA688E
:1007C0003B68DB7919467B695B0001FA03F31A4346
:1007D0007B68DA607B6901337B617B690F2B85D98C
:1007E0001C37BD465DF8047B704700BF80B483B002
:1007F00000AF78600B467B807B687A881A830C3761
:10080000BD465DF8047B704780B485B000AF78606A
:1008100013460A467A807B700023FB600023BB608E
:100820007A787B8803F007039B0002FA03F3FB60EE
:100830007B88DB089BB21A467B88DB089BB2194693
:100840007B68083153F821107B8803F007039B0075
:100850000F2000FA03F3DB4319407B68083243F8AA
:1008600022107B88DB089BB21A467B68083253F85B
:100870002220FB681343BB607B88DB089BB21A46CF
:100880007B680832B96843F822101437BD465DF81A
:10089000047B704780B58AB000AF78603960002370
:1008A000FB8400237B840423BB84574BFB617B6860
:1008B0009B88FB84FB8C23F03F03FB8407F10C0334
:1008C0001846FFF701FE7B69FB61FA694F4BA3FBFA
:1008D00002139B0C7B84FA8C7B8C1343FB847B6818
:1008E000FA8C9A807B681B889BB223F001039AB232
:1008F0007B681A800023FB843B681A68444B9A4249
:1009000015D83B681B685B00FA69B2FBF3F3BB8444
:10091000BB8C032B01D80423BB84FA8CBB8C134300
:10092000FB847B8C01339AB27B681A8440E03B687D
:10093000DA884BF6FF739A4209D13B681A6813466E
:100940005B001344FA69B2FBF3F3BB840EE03B682F
:100950001A6813469B0013449A001344FA69B2FBC9
:10096000F3F3BB84BB8C43F48043BB84BB8CC3F3E5
:100970000B03002B03D1BB8C43F00103BB84BA8C67
:10098000FB8C13439BB26FEA43436FEA5343FB84F0
:100990007B8C4FF4967202FB03F31E4A82FB031218
:1009A0009211DB17D31A9BB201339AB27B681A8477
:1009B0007B68FA8C9A837B681B889BB243F00103A7
:1009C0009AB27B681A807B681B88FB84FB8C23F4BB
:1009D000816323F00203FB843B689A883B685B8950
:1009E00013439AB2FB8C1343FB847B68FA8C1A8006
:1009F0003B689A893B681B8913439AB27B681A81CA
:100A00002837BD4680BD00BF00127A0083DE1B433D
:100A1000A0860100D34D621080B483B000AF78602F
:100A20000B46FB70FB78002B08D07B681B889BB2C1
:100A300043F001039AB27B681A8007E07B681B8849
:100A40009BB223F001039AB27B681A800C37BD4633
:100A50005DF8047B704700BF80B483B000AF78605E
:100A60000B46FB70FB78002B08D07B681B889BB281
:100A700043F480739AB27B681A8007E07B681B8816
:100A80009BB223F480739AB27B681A800C37BD4600
:100A90005DF8047B704700BF80B483B000AF78601E
:100AA0000B46FB70FB78002B08D07B681B889BB241
:100AB00043F400739AB27B681A8007E07B681B8856
:100AC0009BB223F400739AB27B681A800C37BD4640
:100AD0005DF8047B704700BF80B483B000AF7860DE
:100AE00013460A46FA70BB70BB78002B04D0FB7823
:100AF00043F00103FB7003E0FB7823F00103FB707C
:100B0000FB789AB27B681A820C37BD465DF8047B8D
:100B1000704700BF80B483B000AF78600B46FB70B5
:100B2000FB78002B08D07B681B889BB243F4806362
:100B30009AB27B681A8007E07B681B889BB223F41B
:100B400080639AB27B681A800C37BD465DF8047BDF
:100B5000704700BF80B483B000AF78600B46FB7075
:100B6000FB789AB27B681A820C37BD465DF8047B2D
:100B7000704700BF80B483B000AF78607B681B8A89
:100B80009BB2DBB218460C37BD465DF8047B70475C
:100B900080B487B000AF7860396000233B610023E8
:100BA000FB600023BB600023FB757B689B8A9BB2C4
:100BB000FB607B681B8B9BB2BB60BB681B04BB608C
:100BC000FA68BB68134323F07F433B613A693B6893
:100BD0001A403B689A4202D10123FB7501E00023D1
:100BE000FB75FB7D18461C37BD465DF8047B7047DE
:100BF00080B487B000AF786039600023FB750023B4
:100C00003B610023FB607B68FB603B681B0F3B6123
:100C10003B6823F07F433B603B69002B03D0FB68BC
:100C20001433FB6005E03B681B0C3B60FB6818332A
:100C3000FB60FB681A683B681340002B02D001235D
:100C4000FB7501E00023FB75FB7D18461C37BD4694
:080C50005DF8047B704700BF52
:100C5800000000000102030401020304060708095A
:0400000508000000EF
:00000001FF
