:020000040800F2
:1000000098080020B5030008110400081104000836
:100010001104000811040008110400080000000089
:1000200000000000000000000000000011040008B3
:100030001104000800000000110400081104000869
:10004000110400081104000811040008110400083C
:10005000110400081104000811040008110400082C
:10006000110400081104000811040008110400081C
:10007000110400081104000811040008110400080C
:1000800011040008110400081104000811040008FC
:1000900011040008110400081104000811040008EC
:1000A00011040008110400081104000811040008DC
:1000B00011040008110400081104000811040008CC
:1000C00011040008110400081104000811040008BC
:1000D00011040008110400081104000811040008AC
:1000E000110400081104000811040008110400089C
:1000F000110400081104000811040008110400088C
:10010000110400081104000811040008110400087B
:10011000110400081104000811040008110400086B
:10012000110400081104000811040008110400085B
:10013000110400081104000811040008110400084B
:10014000110400081104000811040008110400083B
:10015000110400081104000811040008110400082B
:10016000110400081104000811040008110400081B
:10017000110400081104000811040008110400080B
:10018000110400081104000880B58AB000AF78603F
:10019000396000237B6200233B620023FB61002364
:1001A000BB617B681B8A9BB27B627B6A23F44053F2
:1001B0007B623B68DB887A6A13437B627B6A9AB214
:1001C0007B681A827B689B899BB27B627B6A23F483
:1001D000B05323F00C037B623B689A883B681B8911
:1001E00013439AB23B685B8913439BB27A6A134309
:1001F0007B627B6A9AB27B689A817B689B8A9BB29E
:100200007B627B6A23F440737B623B689B897A6ADA
:1002100013437B627B6A9AB27B689A8207F1080378
:10022000184600F079FE7A68314B9A4203D07A681A
:10023000304B9A4202D17B693B6201E03B693B62F1
:100240007B689B899BB29BB21BB2002B0CDA3A6A8B
:1002500013469B0013449A001A443B681B685B00DA
:10026000B2FBF3F3FB610BE03A6A13469B001344C5
:100270009A001A443B681B689B00B2FBF3F3FB61D6
:10028000FA691D4BA3FB02135B091B017B627B6AAE
:100290001B09642202FB03F3FA69D31ABB617B6872
:1002A0009B899BB29BB21BB2002B0DDABB69DB00B2
:1002B00003F13202104BA3FB02135B0903F00703A7
:1002C0007A6A13437B620CE0BB691B0103F13202C3
:1002D000094BA3FB02135B0903F00F037A6A134374
:1002E0007B627B6A9AB27B681A812837BD4680BDE3
:1002F00000100140001401401F85EB5180B483B011
:1003000000AF78600B46FB70FB78002B08D07B6851
:100310009B899BB243F400539AB27B689A8107E0B1
:100320007B689B899BB223F400539AB27B689A81C5
:100330000C37BD465DF8047B704700BF80B483B0C6
:1003400000AF78607B689B889BB2C3F308039BB2C5
:1003500018460C37BD465DF8047B704780B485B005
:1003600000AF78600B467B800023FB737B681B88A3
:100370009AB27B8813409BB2002B02D00123FB73FF
:1003800001E00023FB73FB7B18461437BD465DF884
:10039000047B704780B483B000AF78600B467B80ED
:1003A0007B88DB439AB27B681A800C37BD465DF8C8
:1003B000047B704780B582B000AF104B7B60104B60
:1003C0003B6007E03B681A1D3A607A68111D79604E
:1003D00012681A603A680B4B9A42F3D30A480B49E9
:1003E0004FF000028842B8BF40F8042BFFF6FAAF86
:1003F00000F05AFB0837BD4680BD00BF1019000849
:1004000000000020140000201400002098000020AC
:1004100080B400AFFEE700BF80B582B000AF082017
:10042000012100F023FE0F233B6001233B710023D9
:10043000BB7103237B710123FB713B4603481946C3
:1004400000F050FE0837BD4680BD00BF000C0240E2
:1004500090B583B000AF1020012100F007FE3C23CF
:100460003B6000233B710023BB7103237B7101239D
:10047000FB713B461C48194600F034FE1A48042123
:1004800000F0BEFE03465C001748082100F0B8FEED
:10049000034623445C001448102100F0B1FE0346DB
:1004A00023445C001048202100F0AAFE0346E21815
:1004B0000E4B1A600C48202100F0A2FE0346002BD0
:1004C00003D10948012100F0B5FE0748102100F0D2
:1004D00097FE0346002B03D10348022100F0AAFE39
:1004E0000C37BD4690BD00BF0010024088000020C0
:1004F00080B582B000AF1020012100F0B7FD0323CA
:100500003B6001233B710023BB7103237B710123FB
:10051000FB713B460348194600F0E4FD0837BD4631
:1005200080BD00BF0010024080B582B000AF022045
:10053000012100F09BFD0B233B6001233B71002355
:10054000BB7103237B710123FB713B4603481946B2
:1005500000F0C8FD0837BD4680BD00BF0004024062
:1005600080B582B000AF1020012100F07FFD47F67A
:1005700083733B6001233B710023BB7103237B71B9
:100580000123FB713B460348194600F0ABFD0837D9
:10059000BD4680BD0010024080B582B000AF7860DB
:1005A00039607B68013B042B66D801A252F823F026
:1005B000C5050008E7050008090600082F06000821
:1005C000550600083B68012B04D12D48012100F09D
:1005D00031FE07E03B68002B04D12948012100F0DF
:1005E00037FE49E048E03B68012B04D125488021D3
:1005F00000F020FE07E03B68002B04D12148802159
:1006000000F026FE38E037E03B68012B05D11D489D
:100610004FF4007100F00EFE08E03B68002B05D19E
:1006200018484FF4007100F013FE25E024E03B6809
:10063000012B05D113484FF4006100F0FBFD08E0E9
:100640003B68002B05D10F484FF4006100F000FE1D
:1006500012E011E03B68012B05D10A484FF400512C
:1006600000F0E8FD07E03B68002B04D105484FF49B
:10067000005100F0EDFD00BF0837BD4680BD00BF52
:10068000000402400010024080B582B000AF7860E4
:1006900039607B68013B042B68D801A252F823F033
:1006A000B5060008D7060008FD0600082307000865
:1006B000490700083B68012B04D12E48022100F0B5
:1006C000B9FD07E03B68002B04D12A48022100F065
:1006D000BFFD4BE04AE03B68012B05D126484FF4B3
:1006E000807100F0A7FD08E03B68002B05D122488F
:1006F0004FF4807100F0ACFD38E037E03B68012B2F
:1007000005D11D484FF4806100F094FD08E03B687E
:10071000002B05D118484FF4806100F099FD25E0C9
:1007200024E03B68012B05D113484FF4805100F0C1
:1007300081FD08E03B68002B05D10F484FF4805144
:1007400000F086FD12E011E03B68012B05D10A485C
:100750004FF4804100F06EFD07E03B68002B04D1B0
:1007600005484FF4804100F073FD00BF0837BD46D7
:1007700080BD00BF000402400010024080B58AB076
:1007800000AF0420012100F08FFC0820012100F0BF
:100790006DFC4FF470433B6002233B7103237B717C
:1007A0000023BB710123FB713B463648194600F01C
:1007B00099FC34480C21022200F058FD31480D21EB
:1007C000022200F053FD2F480E21022200F04EFDC0
:1007D0002C480F21022200F049FD7F233B62832336
:1007E000BB830023BB840023FB8307F11C03264843
:1007F000194600F081FD70233B8101237B8100239A
:100800003B610223BB8207F108031F48194600F031
:100810001DFE1D48082101F007F801237B810023FC
:100820003B6107F108031848194600F089FE164895
:10083000082101F015F801237B8100233B6107F1BA
:1008400008031148194600F003FF0F48082101F082
:1008500025F801237B8100233B6107F108030A4847
:10086000194600F07BFF0848082101F033F80648DC
:10087000012100F0ABFD0448012100F0C7FD28373D
:10088000BD4680BD000C02400008004080B483B02B
:1008900000AF786039607B68013B032B1AD801A256
:1008A00052F823F0B5080008BD080008C508000884
:1008B000CD0800080A4B3A685A630BE0084B3A68C7
:1008C0009A6307E0064B3A68DA6303E0044B3A6840
:1008D0001A6400BF0C37BD465DF8047B704700BF4B
:1008E0000008004080B58AB000AF0120012100F06F
:1008F000DBFB0220012100F0B9FB4FF480633B6079
:1009000002233B7103237B710023BB710123FB7125
:100910003B462248194600F0E5FB20480A21012207
:1009200000F0A4FCFF233B624223BB830023BB8473
:100930000023FB8307F11C034FF08040194600F0B1
:10094000DBFC70233B810223BB8207F108034FF0DD
:100950008040194600F07AFD4FF08040082100F0F9
:1009600063FF01237B8100233B6107F108034FF004
:100970008040194600F06CFE4FF08040082100F0E6
:100980008DFF4FF08040012100F020FD4FF08040AE
:10099000012100F03BFD2837BD4680BD0004024028
:1009A00080B483B000AF78604FF080437A68DA6338
:1009B0000C37BD465DF8047B704700BF80B586B03C
:1009C00000AF0420012100F051FB02233B750023FE
:1009D000BB754FF400633B610123FB7503237B75FB
:1009E00007F110031348194600F07CFB11480B2156
:1009F000082200F03BFC4FF40020012100F054FBE2
:100A00004FF416533B600023BB8104237B810023FA
:100A10003B810023FB800023BB803B4606481946F0
:100A2000FFF7B2FB04480121FFF768FC1837BD4609
:100A300080BD00BF00080240004C004080B500AF00
:100A40000F48012100F0F6FB0E48022100F0F2FBF6
:100A50000D4B00221A6004E00B4B1B685A1C0A4B1A
:100A60001A60094B1A6842F20F739A42F4DD054886
:100A7000022100F0EDFB0248012100F0E9FB80BDFE
:100A8000000C0240001002408000002080B500AF42
:100A90008020FFF785FF05200121FFF7F5FD0520E8
:100AA0000021FFF779FD80BD80B500AFFFF7B4FCF2
:100AB000FFF73AFDFFF754FDFFF71AFDFFF7C8FCFB
:100AC000FFF77CFFFFF75AFEFFF70CFF2EE02DE04B
:100AD000B44B1B68072B03DDB24B00221A6025E0E4
:100AE000B1482021FFF73AFC0346002B1ED0AE4848
:100AF000FFF724FC03461A46AC4B1A60A94B1A6850
:100B0000AA4B1968AA4B43F82210AA4B1B685A1C1F
:100B1000A84B1A60A4482021FFF73CFCA14B1B689E
:100B20005A1CA04B1A60A44B00221A60A14B1B68F0
:100B3000072BCDDD9F4B00221A609D4B1B68012BBC
:100B400040F0E3819A4B5B68012B40F0DE81984BCB
:100B50009B69012B01D1FFF771FF954BDB69012BDD
:100B600002D1FFF793FF0AE01420FFF719FF0520D9
:100B70000121FFF789FD05200021FFF70DFD8C4BBA
:100B80009B687F2B33DC8A4B9B68002B2FDB884BC9
:100B90009B68002B0CD101200021FFF7FDFC0120F8
:100BA0000121FFF771FD01200A21FFF76FFE53E0DD
:100BB0007F4B9B68642202FB03F3804A82FB031293
:100BC0001A449211DB17D31A03F10D027C4B1A6001
:100BD00001200021FFF7E0FC01200121FFF754FD77
:100BE000774B1B6801201946FFF750FE34E0704B2D
:100BF0009B68FF2B0CD101200121FFF7CDFC0120C8
:100C00000021FFF741FD01200A21FFF73FFE23E00D
:100C1000674B9B68C3F1FF02654B9A60644B9B680E
:100C2000642202FB03F3654A82FB03121A44921109
:100C3000DB17D31A03F10D02614B1A600120012169
:100C4000FFF7AAFC01200021FFF71EFD5C4B1B688B
:100C500001201946FFF71AFE554BDB687F2B03DD99
:100C6000534BDB68002B2FDB514BDB68002B0CD187
:100C700002200021FFF790FC02200121FFF704FD74
:100C800002200A21FFF702FE53E0494BDB68642291
:100C900002FB03F3494A82FB03121A449211DB1749
:100CA000D31A03F10D02464B1A6002200021FFF710
:100CB00073FC02200121FFF7E7FC414B1B68022077
:100CC0001946FFF7E3FD34E0394BDB68FF2B0CD10D
:100CD00002200121FFF760FC02200021FFF7D4FC75
:100CE00002200A21FFF7D2FD23E0314BDB68C3F17C
:100CF000FF022F4BDA602E4BDB68642202FB03F30A
:100D00002E4A82FB03121A449211DB17D31A03F105
:100D10000D022B4B1A6002200121FFF73DFC02203F
:100D20000021FFF7B1FC264B1B6802201946FFF794
:100D3000ADFD1F4B1B697F2B03DD1D4B1B69002B7A
:100D400040DB1B4B1B69002B0CD103200021FFF75C
:100D500023FC03200121FFF797FC03200A21FFF762
:100D600095FD64E0124B1B69642202FB03F3134AF6
:100D700082FB03121A449211DB17D31A03F10D02FE
:100D80000F4B1A6003200021FFF706FC032001210E
:100D9000FFF77AFC0A4B1B6803201946FFF776FD24
:100DA00045E000BF58000020004C00405C000020DF
:100DB000340000205400002000000020832008821E
:100DC00090000020514B1B69FF2B0CD10320012107
:100DD000FFF7E2FB03200021FFF756FC03200A2166
:100DE000FFF754FD23E0494B1B69C3F1FF02474B5A
:100DF0001A61464B1B69642202FB03F3444A82FBDF
:100E000003121A449211DB17D31A03F10D02414B5E
:100E10001A6003200121FFF7BFFB03200021FFF729
:100E200033FC3C4B1B6803201946FFF72FFD374B63
:100E30005B697F2B03DD354B5B69002B2FDB334B6D
:100E40005B69002B0CD104200021FFF7A5FB0420D7
:100E50000121FFF719FC04200A21FFF717FD54E0D8
:100E60002A4B5B69642202FB03F3294A82FB0312CB
:100E70001A449211DB17D31A03F10D02254B1A60A5
:100E800004200021FFF788FB04200121FFF7FCFB71
:100E9000204B1B6804201946FFF7F8FC35E01B4B7C
:100EA0005B69FF2B0CD104200021FFF775FB0420A8
:100EB0000121FFF7E9FB04200A21FFF7E7FC24E00A
:100EC000124B5B69C3F1FF02104B5A610F4B5B6918
:100ED000642202FB03F30E4A82FB03121A449211AE
:100EE000DB17D31A03F10D020A4B1A60042001210B
:100EF000FFF752FB04200021FFF7C6FB054B1B68E0
:100F000004201946FFF7C2FCE1E5E0E534000020CB
:100F1000832008829000002080B489B000AF786000
:100F20000023BB6100237B610023FB6102233B6143
:100F30000023FB600223BB60484B9B6803F00C035B
:100F4000BB61BB69042B07D0082B09D0002B3FD114
:100F50007B68434A1A603FE07B68424A1A603BE084
:100F60003E4B5B6803F480039B0DFB603B4B5B686F
:100F700003F03F03BB60FB68002B0DD0394ABB6810
:100F8000B2FBF3F2354B596847F6C0730B409B092F
:100F900003FB02F3FB610CE0314ABB68B2FBF3F2E6
:100FA0002E4B596847F6C0730B409B0903FB02F3B5
:100FB000FB612A4B5B6803F440331B0C01335B007D
:100FC0003B61FA693B69B2FBF3F27B681A6003E0AC
:100FD0007B68234A1A6000BF204B9B6803F0F00334
:100FE000BB61BB691B09BB611F4ABB6913441B780A
:100FF000DBB27B617B681A687B69DA407B685A6088
:10100000164B9B6803F4E053BB61BB699B0ABB6151
:10101000154ABB6913441B78DBB27B617B685A6855
:101020007B69DA407B689A600C4B9B6803F46043F1
:10103000BB61BB695B0BBB610B4ABB6913441B788B
:10104000DBB27B617B685A687B69DA407B68DA6077
:101050002437BD465DF8047B704700BF003802406E
:101060000024F40040787D010400002080B483B0A7
:1010700000AF78600B46FB70FB78002B06D0094B65
:10108000084A116B7A680A431A6306E0054B054A61
:10109000116B7A68D2430A401A630C37BD465DF87B
:1010A000047B70470038024080B483B000AF7860A2
:1010B0000B46FB70FB78002B06D0094B084A116CDD
:1010C0007A680A431A6406E0054B054A116C7A688F
:1010D000D2430A401A640C37BD465DF8047B704762
:1010E0000038024080B487B000AF786039600023D8
:1010F0007B6100233B610023FB6000237B6176E082
:101100007B69012202FA03F33B613B681A683B6981
:101110001340FB60FA683B699A4265D17B681A68A4
:101120007B695B00032101FA03F3DB431A407B6810
:101130001A607B681A683B681B7919467B695B00FB
:1011400001FA03F31A437B681A603B681B79012B91
:1011500003D03B681B79022B2ED17B689A687B6990
:101160005B00032101FA03F3DB431A407B689A60BA
:101170007B689A683B685B7919467B695B0001FA7A
:1011800003F31A437B689A607B685A687B699BB259
:10119000012101FA03F3DB431A407B685A607B6844
:1011A0005A683B689B7919467B699BB201FA03F345
:1011B0009BB21A437B685A607B68DA687B699BB292
:1011C0005B00032101FA03F3DB431A407B68DA601A
:1011D0007B68DA683B68DB7919467B695B0001FA5A
:1011E00003F31A437B68DA607B6901337B617B69B7
:1011F0000F2B85D91C37BD465DF8047B704700BFB7
:1012000080B485B000AF78600B467B800023FB7311
:101210007B681A697B881340002B02D00123FB7383
:1012200001E00023FB73FB7B18461437BD465DF8D5
:10123000047B704780B483B000AF78600B467B803E
:101240007B687A881A830C37BD465DF8047B70474B
:1012500080B483B000AF78600B467B807B687A886F
:101260005A830C37BD465DF8047B704780B485B067
:1012700000AF786013460A467A807B700023FB60DB
:101280000023BB607A787B8803F007039B0002FA97
:1012900003F3FB607B88DB089BB21A467B88DB0884
:1012A0009BB219467B68083153F821107B8803F004
:1012B00007039B000F2000FA03F3DB4319407B6810
:1012C000083243F822107B88DB089BB21A467B6801
:1012D000083253F82220FB681343BB607B88DB088D
:1012E0009BB21A467B680832B96843F8221014375B
:1012F000BD465DF8047B704780B485B000AF786070
:1013000039600023FB817B681B88FB817A68284B4E
:101310009A4213D07A68274B9A420FD07B68B3F178
:10132000804F0BD07A68244B9A4207D07A68234BBF
:101330009A4203D07A68224B9A4208D1FB8923F063
:101340007003FB813B685A88FB891343FB817A68F1
:101350001C4B9A420CD07A681B4B9A4208D0FB89EE
:1013600023F44073FB813B681A89FB891343FB819B
:101370007B68FA891A803B685A687B68DA623B6846
:101380001A887B681A857A68094B9A4203D07A6872
:10139000084B9A4204D13B689B7A1A467B681A86AE
:1013A0007B6801229A821437BD465DF8047B704742
:1013B000000001400004014000040040000800401B
:1013C000000C0040001000400014004080B483B0C6
:1013D00000AF78600B46FB70FB78002B08D07B6871
:1013E0001B889BB243F080039AB27B681A8007E0A7
:1013F0007B681B889BB223F080039AB27B681A80BB
:101400000C37BD465DF8047B704700BF80B483B0E5
:1014100000AF78600B46FB70FB78002B08D07B6830
:101420001B889BB243F001039AB27B681A8007E0E5
:101430007B681B889BB223F001039AB27B681A80F9
:101440000C37BD465DF8047B704700BF80B485B0A3
:1014500000AF7860396000237B810023FB8100238B
:10146000BB817B681B8C9BB223F001039AB27B6823
:101470001A847B681B8CFB817B689B88BB817B68A3
:101480001B8B7B817B8923F070037B817B8923F01D
:1014900003037B813B681A887B8913437B81FB892B
:1014A00023F00203FB813B689A89FB891343FB818C
:1014B0003B685A88FB891343FB817A681E4B9A422A
:1014C00003D07A681D4B9A4223D1FB8923F008038D
:1014D000FB813B68DA89FB891343FB81FB8923F09D
:1014E0000403FB813B689A88FB891343FB81BB891A
:1014F00023F48073BB81BB8923F40073BB813B68F9
:101500001A8ABB891343BB813B685A8ABB89134340
:10151000BB817B68BA899A807B687A891A833B6829
:101520009A687B685A637B68FA891A841437BD46C7
:101530005DF8047B704700BF0000014000040140DB
:1015400080B485B000AF7860396000237B810023D0
:10155000FB810023BB817B681B8C9BB223F01003B3
:101560009AB27B681A847B681B8CFB817B689B88A2
:10157000BB817B681B8B7B817B8923F4E0437B8170
:101580007B8923F440737B813B681B881B029AB2E2
:101590007B8913437B81FB8923F02003FB813B681C
:1015A0009B891B019AB2FB891343FB813B685B88D3
:1015B0001B019AB2FB891343FB817A68224B9A4242
:1015C00003D07A68214B9A422BD1FB8923F0800308
:1015D000FB813B68DB891B019AB2FB891343FB81CA
:1015E000FB8923F04003FB813B689B881B019AB277
:1015F000FB891343FB81BB8923F48063BB81BB89D7
:1016000023F40063BB813B681B8A9B009AB2BB89B1
:101610001343BB813B685B8A9B009AB2BB8913432F
:10162000BB817B68BA899A807B687A891A833B6818
:101630009A687B689A637B68FA891A841437BD4676
:101640005DF8047B704700BF0000014000040140CA
:1016500080B485B000AF7860396000237B810023BF
:10166000FB810023BB817B681B8C9BB223F48073BE
:101670009AB27B681A847B681B8CFB817B689B8891
:10168000BB817B689B8B7B817B8923F070037B8193
:101690007B8923F003037B813B681A887B89134392
:1016A0007B81FB8923F40073FB813B689B891B02D0
:1016B0009AB2FB891343FB813B685B881B029AB299
:1016C000FB891343FB817A68224B9A4203D07A68E4
:1016D000214B9A422BD1FB8923F40063FB813B68A9
:1016E000DB891B029AB2FB891343FB81FB8923F43C
:1016F0008063FB813B689B881B029AB2FB89134382
:10170000FB81BB8923F48053BB81BB8923F4005345
:10171000BB813B681B8A1B019AB2BB891343BB8107
:101720003B685B8A1B019AB2BB891343BB817B6810
:10173000BA899A807B687A899A833B689A687B68C1
:10174000DA637B68FA891A841437BD465DF8047B36
:10175000704700BF000001400004014080B485B024
:1017600000AF786039600023BB8100237B810023B8
:10177000FB817B681B8C9BB223F480539AB27B68FD
:101780001A847B681B8C7B817B689B88FB817B68D0
:101790009B8BBB81BB8923F4E043BB81BB8923F4D2
:1017A0004073BB813B681B881B029AB2BB89134301
:1017B000BB817B8923F400537B813B689B891B039E
:1017C0009AB27B8913437B813B685B881B039AB287
:1017D0007B8913437B817A68114B9A4203D07A68E4
:1017E000104B9A420AD1FB8923F48043FB813B686A
:1017F0001B8A9B019AB2FB891343FB817B68FA89A0
:101800009A807B68BA899A833B689A687B681A6475
:101810007B687A891A841437BD465DF8047B70476B
:10182000000001400004014080B485B000AF786042
:101830000B467B800023FB817B681B8BFB81FB8934
:1018400023F00803FB81FA897B881343FB817B68C3
:10185000FA891A831437BD465DF8047B704700BFD0
:1018600080B485B000AF78600B467B800023FB819D
:101870007B681B8BFB81FB8923F40063FB817B88E6
:101880001B029AB2FB891343FB817B68FA891A8396
:101890001437BD465DF8047B704700BF80B485B047
:1018A00000AF78600B467B800023FB817B689B8BBD
:1018B000FB81FB8923F00803FB81FA897B881343B2
:1018C000FB817B68FA899A831437BD465DF8047BF7
:1018D000704700BF80B485B000AF78600B467B8056
:1018E0000023FB817B689B8BFB81FB8923F40063D6
:1018F000FB817B881B029AB2FB891343FB817B68C7
:10190000FA899A831437BD465DF8047B704700BF9F
:1019100008000000000000000102030401020304AB
:0419200006070809A5
:0400000508000000EF
:00000001FF
