S0120000447574792D6379636C652E737265632F
S113000019C033C032C031C030C02FC02EC02DC083
S11300102CC02BC02AC029C028C027C026C025C098
S113002024C023C022C021C020C01FC01EC01DC0C8
S11300301CC01BC011241FBECFEFD4E0DEBFCDBF58
S113004011E0A0E0B1E0E8EAF0E002C005900D9212
S1130050A030B107D9F711E0A0E0B1E001C01D92D2
S1130060A030B107E1F702D01DC0CACF8FEF84B929
S113007084B58B6884BD85B5836085BD17BC87B5A1
S11300808F3FE1F38FEF97EAA1E681509040A040C3
S1130090E1F700C0000087B58D5C87BD87B58F3F51
S10B00A069F3F0CFF894FFCFDF
S9030000FC
