:020000040800F2
:100000003808002089010008E5010008E501000822
:10001000E5010008E5010008E50100080000000016
:10002000000000000000000000000000E5010008E2
:10003000E501000800000000E5010008E5010008F6
:10004000E5010008E5010008E5010008E5010008F8
:10005000E5010008E5010008E5010008E5010008E8
:10006000E5010008E5010008E5010008E5010008D8
:10007000E5010008E5010008E5010008E5010008C8
:10008000E5010008E5010008E5010008E5010008B8
:10009000E5010008E5010008E5010008E5010008A8
:1000A000E5010008E5010008E5010008E501000898
:1000B000E5010008E5010008E5010008E501000888
:1000C000E5010008E5010008E5010008E501000878
:1000D000E5010008E5010008E5010008E501000868
:1000E000E5010008E5010008E5010008E501000858
:1000F000E5010008E5010008E5010008E501000848
:10010000E5010008E5010008E5010008E501000837
:10011000E5010008E5010008E5010008E501000827
:10012000E5010008E5010008E5010008E501000817
:10013000E5010008E5010008E5010008E501000807
:10014000E5010008E5010008E5010008E5010008F7
:10015000E5010008E5010008E5010008E5010008E7
:10016000E5010008E5010008E5010008E5010008D7
:10017000E5010008E5010008E5010008E5010008C7
:10018000E5010008E501000880B582B000AF104B22
:100190007B60104B3B6007E03B681A1D3A607A6851
:1001A000111D796012681A603A680B4B9A42F3D3BA
:1001B0000A480B494FF000028842B8BF40F8042BB0
:1001C000FFF6FAAF00F0B8F80837BD4680BD00BFB3
:1001D000C8070008000000200000002000000020E8
:1001E0003400002080B400AFFEE700BF80B500AF50
:1001F0000120012100F0AAF8214B06221A60204BB1
:1002000000221A711E4B00229A711D4B02225A7154
:100210001B4B0022DA711B48194900F0D3F8022069
:10022000012100F093F8164BC0221A60144B0222F1
:100230001A71134B00229A71114B02225A71104B02
:100240000022DA7110480E4900F0BCF802200121AA
:1002500000F07CF80A4B4FF440421A60084B012230
:100260001A71074B00229A71054B02225A71044BF6
:100270000022DA710448024900F0A4F880BD00BFF2
:1002800018000020000002400004024080B500AFCA
:100290000420012100F078F80C4B4AF20F421A803A
:1002A0000A4B40F2CF725A60084B00225A80074B2B
:1002B00000221A81054B00229A720548034900F07A
:1002C00063F90348012100F0C9F980BD080000204E
:1002D0000008004080B500AF14480621022200F05B
:1002E0000DF912480721022200F008F90F484FF4D7
:1002F000804100F0F5F80D484FF4004100F0F0F8AF
:100300000B4B60221A800A4B01225A80084B0022B4
:100310009A81074B4FF47A729A600648044900F0BC
:10032000BDF90448082100F033FA80BD0004024002
:10033000200000200008004080B500AFFFF756FF06
:10034000FFF7A4FFFFF7C6FFFCE700BF80B483B050
:1003500000AF78600B46FB70FB78002B06D0094B92
:10036000084A116B7A680A431A6306E0054B054A8E
:10037000116B7A68D2430A401A630C37BD465DF8A8
:10038000047B70470038024080B483B000AF7860CF
:100390000B46FB70FB78002B06D0094B084A116C0A
:1003A0007A680A431A6406E0054B054A116C7A68BC
:1003B000D2430A401A640C37BD465DF8047B70478F
:1003C0000038024080B487B000AF78603960002305
:1003D0007B6100233B610023FB6000237B6176E0AF
:1003E0007B69012202FA03F33B613B681A683B69AF
:1003F0001340FB60FA683B699A4265D17B681A68D2
:100400007B695B00032101FA03F3DB431A407B683D
:100410001A607B681A683B681B7919467B695B0028
:1004200001FA03F31A437B681A603B681B79012BBE
:1004300003D03B681B79022B2ED17B689A687B69BD
:100440005B00032101FA03F3DB431A407B689A60E7
:100450007B689A683B685B7919467B695B0001FAA7
:1004600003F31A437B689A607B685A687B699BB286
:10047000012101FA03F3DB431A407B685A607B6871
:100480005A683B689B7919467B699BB201FA03F372
:100490009BB21A437B685A607B68DA687B699BB2BF
:1004A0005B00032101FA03F3DB431A407B68DA6047
:1004B0007B68DA683B68DB7919467B695B0001FA87
:1004C00003F31A437B68DA607B6901337B617B69E4
:1004D0000F2B85D91C37BD465DF8047B704700BFE4
:1004E00080B483B000AF78600B467B807B687A88ED
:1004F0001A830C37BD465DF8047B704780B485B025
:1005000000AF786013460A467A807B700023FB6058
:100510000023BB607A787B8803F007039B0002FA14
:1005200003F3FB607B88DB089BB21A467B88DB0801
:100530009BB219467B68083153F821107B8803F081
:1005400007039B000F2000FA03F3DB4319407B688D
:10055000083243F822107B88DB089BB21A467B687E
:10056000083253F82220FB681343BB607B88DB080A
:100570009BB21A467B680832B96843F822101437D8
:10058000BD465DF8047B704780B485B000AF7860ED
:1005900039600023FB817B681B88FB817A68284BCC
:1005A0009A4213D07A68274B9A420FD07B68B3F1F6
:1005B000804F0BD07A68244B9A4207D07A68234B3D
:1005C0009A4203D07A68224B9A4208D1FB8923F0E1
:1005D0007003FB813B685A88FB891343FB817A686F
:1005E0001C4B9A420CD07A681B4B9A4208D0FB896C
:1005F00023F44073FB813B681A89FB891343FB8119
:100600007B68FA891A803B685A687B68DA623B68C3
:100610001A887B681A857A68094B9A4203D07A68EF
:10062000084B9A4204D13B689B7A1A467B681A862B
:100630007B6801229A821437BD465DF8047B7047BF
:100640000000014000040140000400400008004098
:10065000000C0040001000400014004080B483B043
:1006600000AF78600B46FB70FB78002B08D07B68EE
:100670001B889BB243F001039AB27B681A8007E0A3
:100680007B681B889BB223F001039AB27B681A80B7
:100690000C37BD465DF8047B704700BF80B485B061
:1006A00000AF7860396000237B810023FB81002349
:1006B000BB817B681B8C9BB223F001039AB27B68E1
:1006C0001A847B681B8CFB817B689B88BB817B6861
:1006D0001B8B7B817B8923F070037B817B8923F0DB
:1006E00003037B813B681A887B8913437B81FB89E9
:1006F00023F00203FB813B689A89FB891343FB814A
:100700003B685A88FB891343FB817A681E4B9A42E7
:1007100003D07A681D4B9A4223D1FB8923F008034A
:10072000FB813B68DA89FB891343FB81FB8923F05A
:100730000403FB813B689A88FB891343FB81BB89D7
:1007400023F48073BB81BB8923F40073BB813B68B6
:100750001A8ABB891343BB813B685A8ABB891343FE
:10076000BB817B68BA899A807B687A891A833B68E7
:100770009A687B685A637B68FA891A841437BD4685
:100780005DF8047B704700BF000001400004014099
:1007900080B485B000AF78600B467B800023FB817E
:1007A0007B681B8BFB81FB8923F00803FB81FA89A3
:1007B0007B881343FB817B68FA891A831437BD4613
:0807C0005DF8047B704700BFE7
:0400000508000000EF
:00000001FF
