S00C00004750494F2E73726563E9
S113000019C033C032C031C030C02FC02EC02DC083
S11300102CC02BC02AC029C028C027C026C025C098
S113002024C023C022C021C020C01FC01EC01DC0C8
S11300301CC01BC011241FBECFEFD4E0DEBFCDBF58
S113004011E0A0E0B1E0EEE9F0E002C005900D920D
S1130050A030B107D9F711E0A0E0B1E001C01D92D2
S1130060A030B107E1F702D018C0CACF8FEF87B92B
S113007088B92FE33DE043E0215030404040E1F7B0
S113008000C0000018B82FE33DE043E021503040A9
S11100904040E1F700C00000EBCFF894FFCF32
S9030000FC
